{
  "contractName": "ResearchPapers",
  "abi": [
    {
      "inputs": [],
      "stateMutability": "nonpayable",
      "type": "constructor"
    },
    {
      "anonymous": false,
      "inputs": [
        {
          "indexed": true,
          "internalType": "address",
          "name": "owner",
          "type": "address"
        },
        {
          "indexed": true,
          "internalType": "address",
          "name": "approved",
          "type": "address"
        },
        {
          "indexed": true,
          "internalType": "uint256",
          "name": "tokenId",
          "type": "uint256"
        }
      ],
      "name": "Approval",
      "type": "event"
    },
    {
      "anonymous": false,
      "inputs": [
        {
          "indexed": true,
          "internalType": "address",
          "name": "owner",
          "type": "address"
        },
        {
          "indexed": true,
          "internalType": "address",
          "name": "operator",
          "type": "address"
        },
        {
          "indexed": false,
          "internalType": "bool",
          "name": "approved",
          "type": "bool"
        }
      ],
      "name": "ApprovalForAll",
      "type": "event"
    },
    {
      "anonymous": false,
      "inputs": [
        {
          "indexed": true,
          "internalType": "address",
          "name": "previousOwner",
          "type": "address"
        },
        {
          "indexed": true,
          "internalType": "address",
          "name": "newOwner",
          "type": "address"
        }
      ],
      "name": "OwnershipTransferred",
      "type": "event"
    },
    {
      "anonymous": false,
      "inputs": [
        {
          "indexed": true,
          "internalType": "address",
          "name": "from",
          "type": "address"
        },
        {
          "indexed": true,
          "internalType": "address",
          "name": "to",
          "type": "address"
        },
        {
          "indexed": true,
          "internalType": "uint256",
          "name": "tokenId",
          "type": "uint256"
        }
      ],
      "name": "Transfer",
      "type": "event"
    },
    {
      "anonymous": false,
      "inputs": [
        {
          "indexed": false,
          "internalType": "string",
          "name": "msg",
          "type": "string"
        }
      ],
      "name": "e_NFTMint",
      "type": "event"
    },
    {
      "anonymous": false,
      "inputs": [
        {
          "indexed": false,
          "internalType": "string",
          "name": "msg",
          "type": "string"
        }
      ],
      "name": "e_closebidding",
      "type": "event"
    },
    {
      "anonymous": false,
      "inputs": [
        {
          "indexed": false,
          "internalType": "string",
          "name": "msg",
          "type": "string"
        }
      ],
      "name": "e_openbidding",
      "type": "event"
    },
    {
      "inputs": [
        {
          "internalType": "address",
          "name": "to",
          "type": "address"
        },
        {
          "internalType": "uint256",
          "name": "tokenId",
          "type": "uint256"
        }
      ],
      "name": "approve",
      "outputs": [],
      "stateMutability": "nonpayable",
      "type": "function"
    },
    {
      "inputs": [
        {
          "internalType": "address",
          "name": "owner",
          "type": "address"
        }
      ],
      "name": "balanceOf",
      "outputs": [
        {
          "internalType": "uint256",
          "name": "",
          "type": "uint256"
        }
      ],
      "stateMutability": "view",
      "type": "function",
      "constant": true
    },
    {
      "inputs": [
        {
          "internalType": "uint256",
          "name": "tokenId",
          "type": "uint256"
        }
      ],
      "name": "getApproved",
      "outputs": [
        {
          "internalType": "address",
          "name": "",
          "type": "address"
        }
      ],
      "stateMutability": "view",
      "type": "function",
      "constant": true
    },
    {
      "inputs": [
        {
          "internalType": "address",
          "name": "owner",
          "type": "address"
        },
        {
          "internalType": "address",
          "name": "operator",
          "type": "address"
        }
      ],
      "name": "isApprovedForAll",
      "outputs": [
        {
          "internalType": "bool",
          "name": "",
          "type": "bool"
        }
      ],
      "stateMutability": "view",
      "type": "function",
      "constant": true
    },
    {
      "inputs": [],
      "name": "max_price",
      "outputs": [
        {
          "internalType": "uint256",
          "name": "",
          "type": "uint256"
        }
      ],
      "stateMutability": "view",
      "type": "function",
      "constant": true
    },
    {
      "inputs": [],
      "name": "name",
      "outputs": [
        {
          "internalType": "string",
          "name": "",
          "type": "string"
        }
      ],
      "stateMutability": "view",
      "type": "function",
      "constant": true
    },
    {
      "inputs": [],
      "name": "owner",
      "outputs": [
        {
          "internalType": "address",
          "name": "",
          "type": "address"
        }
      ],
      "stateMutability": "view",
      "type": "function",
      "constant": true
    },
    {
      "inputs": [
        {
          "internalType": "uint256",
          "name": "tokenId",
          "type": "uint256"
        }
      ],
      "name": "ownerOf",
      "outputs": [
        {
          "internalType": "address",
          "name": "",
          "type": "address"
        }
      ],
      "stateMutability": "view",
      "type": "function",
      "constant": true
    },
    {
      "inputs": [],
      "name": "renounceOwnership",
      "outputs": [],
      "stateMutability": "nonpayable",
      "type": "function"
    },
    {
      "inputs": [
        {
          "internalType": "address",
          "name": "from",
          "type": "address"
        },
        {
          "internalType": "address",
          "name": "to",
          "type": "address"
        },
        {
          "internalType": "uint256",
          "name": "tokenId",
          "type": "uint256"
        }
      ],
      "name": "safeTransferFrom",
      "outputs": [],
      "stateMutability": "nonpayable",
      "type": "function"
    },
    {
      "inputs": [
        {
          "internalType": "address",
          "name": "from",
          "type": "address"
        },
        {
          "internalType": "address",
          "name": "to",
          "type": "address"
        },
        {
          "internalType": "uint256",
          "name": "tokenId",
          "type": "uint256"
        },
        {
          "internalType": "bytes",
          "name": "data",
          "type": "bytes"
        }
      ],
      "name": "safeTransferFrom",
      "outputs": [],
      "stateMutability": "nonpayable",
      "type": "function"
    },
    {
      "inputs": [
        {
          "internalType": "address",
          "name": "operator",
          "type": "address"
        },
        {
          "internalType": "bool",
          "name": "approved",
          "type": "bool"
        }
      ],
      "name": "setApprovalForAll",
      "outputs": [],
      "stateMutability": "nonpayable",
      "type": "function"
    },
    {
      "inputs": [
        {
          "internalType": "bytes4",
          "name": "interfaceId",
          "type": "bytes4"
        }
      ],
      "name": "supportsInterface",
      "outputs": [
        {
          "internalType": "bool",
          "name": "",
          "type": "bool"
        }
      ],
      "stateMutability": "view",
      "type": "function",
      "constant": true
    },
    {
      "inputs": [],
      "name": "symbol",
      "outputs": [
        {
          "internalType": "string",
          "name": "",
          "type": "string"
        }
      ],
      "stateMutability": "view",
      "type": "function",
      "constant": true
    },
    {
      "inputs": [
        {
          "internalType": "uint256",
          "name": "tokenId",
          "type": "uint256"
        }
      ],
      "name": "tokenURI",
      "outputs": [
        {
          "internalType": "string",
          "name": "",
          "type": "string"
        }
      ],
      "stateMutability": "view",
      "type": "function",
      "constant": true
    },
    {
      "inputs": [
        {
          "internalType": "address",
          "name": "from",
          "type": "address"
        },
        {
          "internalType": "address",
          "name": "to",
          "type": "address"
        },
        {
          "internalType": "uint256",
          "name": "tokenId",
          "type": "uint256"
        }
      ],
      "name": "transferFrom",
      "outputs": [],
      "stateMutability": "nonpayable",
      "type": "function"
    },
    {
      "inputs": [
        {
          "internalType": "address",
          "name": "newOwner",
          "type": "address"
        }
      ],
      "name": "transferOwnership",
      "outputs": [],
      "stateMutability": "nonpayable",
      "type": "function"
    },
    {
      "inputs": [
        {
          "internalType": "address payable",
          "name": "author",
          "type": "address"
        },
        {
          "internalType": "string",
          "name": "paper_name",
          "type": "string"
        },
        {
          "internalType": "string",
          "name": "paper_url",
          "type": "string"
        },
        {
          "internalType": "uint256",
          "name": "id",
          "type": "uint256"
        }
      ],
      "name": "approveAndcreateNFT",
      "outputs": [],
      "stateMutability": "nonpayable",
      "type": "function"
    },
    {
      "inputs": [
        {
          "internalType": "uint256",
          "name": "id",
          "type": "uint256"
        }
      ],
      "name": "start_bidding",
      "outputs": [],
      "stateMutability": "nonpayable",
      "type": "function"
    },
    {
      "inputs": [],
      "name": "bid",
      "outputs": [],
      "stateMutability": "payable",
      "type": "function",
      "payable": true
    },
    {
      "inputs": [],
      "name": "close_bidding",
      "outputs": [],
      "stateMutability": "payable",
      "type": "function",
      "payable": true
    },
    {
      "inputs": [
        {
          "internalType": "uint256",
          "name": "id",
          "type": "uint256"
        }
      ],
      "name": "display_PaperDetails",
      "outputs": [
        {
          "components": [
            {
              "internalType": "string",
              "name": "name",
              "type": "string"
            },
            {
              "internalType": "bool",
              "name": "verified",
              "type": "bool"
            },
            {
              "internalType": "address payable",
              "name": "previous_owner",
              "type": "address"
            },
            {
              "internalType": "address payable",
              "name": "present_owner",
              "type": "address"
            },
            {
              "internalType": "uint256",
              "name": "id",
              "type": "uint256"
            },
            {
              "internalType": "string",
              "name": "paper_url",
              "type": "string"
            }
          ],
          "internalType": "struct ResearchPapers.PaperDetails",
          "name": "",
          "type": "tuple"
        }
      ],
      "stateMutability": "view",
      "type": "function",
      "constant": true
    },
    {
      "inputs": [],
      "name": "display_maxBidPrice",
      "outputs": [
        {
          "internalType": "uint256",
          "name": "",
          "type": "uint256"
        }
      ],
      "stateMutability": "view",
      "type": "function",
      "constant": true
    },
    {
      "inputs": [
        {
          "internalType": "uint256",
          "name": "id",
          "type": "uint256"
        }
      ],
      "name": "display_PersonDetails",
      "outputs": [
        {
          "internalType": "address",
          "name": "",
          "type": "address"
        }
      ],
      "stateMutability": "view",
      "type": "function",
      "constant": true
    }
  ],
  "bytecode": "0x60806040526000600c60006101000a81548160ff0219169083151502179055506000600f60006101000a81548173ffffffffffffffffffffffffffffffffffffffff021916908373ffffffffffffffffffffffffffffffffffffffff16021790555060006010553480156200007357600080fd5b506040518060400160405280601481526020017f5265736561726368506170657242696464696e670000000000000000000000008152506040518060400160405280600381526020017f52504200000000000000000000000000000000000000000000000000000000008152508160009081620000f19190620004b5565b508060019081620001039190620004b5565b505050620001266200011a6200016d60201b60201c565b6200017560201b60201c565b33600960006101000a81548173ffffffffffffffffffffffffffffffffffffffff021916908373ffffffffffffffffffffffffffffffffffffffff1602179055506200059c565b600033905090565b6000600660009054906101000a900473ffffffffffffffffffffffffffffffffffffffff16905081600660006101000a81548173ffffffffffffffffffffffffffffffffffffffff021916908373ffffffffffffffffffffffffffffffffffffffff1602179055508173ffffffffffffffffffffffffffffffffffffffff168173ffffffffffffffffffffffffffffffffffffffff167f8be0079c531659141344cd1fd0a4f28419497f9722a3daafe3b4186f6b6457e060405160405180910390a35050565b600081519050919050565b7f4e487b7100000000000000000000000000000000000000000000000000000000600052604160045260246000fd5b7f4e487b7100000000000000000000000000000000000000000000000000000000600052602260045260246000fd5b60006002820490506001821680620002bd57607f821691505b602082108103620002d357620002d262000275565b5b50919050565b60008190508160005260206000209050919050565b60006020601f8301049050919050565b600082821b905092915050565b6000600883026200033d7fffffffffffffffffffffffffffffffffffffffffffffffffffffffffffffffff82620002fe565b620003498683620002fe565b95508019841693508086168417925050509392505050565b6000819050919050565b6000819050919050565b600062000396620003906200038a8462000361565b6200036b565b62000361565b9050919050565b6000819050919050565b620003b28362000375565b620003ca620003c1826200039d565b8484546200030b565b825550505050565b600090565b620003e1620003d2565b620003ee818484620003a7565b505050565b5b8181101562000416576200040a600082620003d7565b600181019050620003f4565b5050565b601f82111562000465576200042f81620002d9565b6200043a84620002ee565b810160208510156200044a578190505b620004626200045985620002ee565b830182620003f3565b50505b505050565b600082821c905092915050565b60006200048a600019846008026200046a565b1980831691505092915050565b6000620004a5838362000477565b9150826002028217905092915050565b620004c0826200023b565b67ffffffffffffffff811115620004dc57620004db62000246565b5b620004e88254620002a4565b620004f58282856200041a565b600060209050601f8311600181146200052d576000841562000518578287015190505b62000524858262000497565b86555062000594565b601f1984166200053d86620002d9565b60005b82811015620005675784890151825560018201915060208501945060208101905062000540565b8683101562000587578489015162000583601f89168262000477565b8355505b6001600288020188555050505b505050505050565b613d3380620005ac6000396000f3fe60806040526004361061014b5760003560e01c80636352211e116100b6578063b88d4fde1161006f578063b88d4fde14610450578063c87b56dd14610479578063e3835ed3146104b6578063e985e9c5146104f3578063f1e36ca114610530578063f2fde38b146105595761014b565b80636352211e1461034057806370a082311461037d578063715018a6146103ba5780638da5cb5b146103d157806395d89b41146103fc578063a22cb465146104275761014b565b8063269471b311610108578063269471b3146102515780633710a34c1461027c578063385fab00146102a557806342842e0e146102d05780635d628b73146102f957806360033865146103035761014b565b806301ffc9a71461015057806306fdde031461018d578063081812fc146101b8578063095ea7b3146101f55780631998aeef1461021e57806323b872dd14610228575b600080fd5b34801561015c57600080fd5b50610177600480360381019061017291906128a2565b610582565b60405161018491906128ea565b60405180910390f35b34801561019957600080fd5b506101a2610664565b6040516101af9190612995565b60405180910390f35b3480156101c457600080fd5b506101df60048036038101906101da91906129ed565b6106f6565b6040516101ec9190612a5b565b60405180910390f35b34801561020157600080fd5b5061021c60048036038101906102179190612aa2565b61073c565b005b610226610853565b005b34801561023457600080fd5b5061024f600480360381019061024a9190612ae2565b610a45565b005b34801561025d57600080fd5b50610266610aa5565b6040516102739190612b44565b60405180910390f35b34801561028857600080fd5b506102a3600480360381019061029e91906129ed565b610aab565b005b3480156102b157600080fd5b506102ba610b57565b6040516102c79190612b44565b60405180910390f35b3480156102dc57600080fd5b506102f760048036038101906102f29190612ae2565b610b61565b005b610301610b81565b005b34801561030f57600080fd5b5061032a600480360381019061032591906129ed565b610fe9565b6040516103379190612a5b565b60405180910390f35b34801561034c57600080fd5b50610367600480360381019061036291906129ed565b611026565b6040516103749190612a5b565b60405180910390f35b34801561038957600080fd5b506103a4600480360381019061039f9190612b5f565b6110ac565b6040516103b19190612b44565b60405180910390f35b3480156103c657600080fd5b506103cf611163565b005b3480156103dd57600080fd5b506103e6611177565b6040516103f39190612a5b565b60405180910390f35b34801561040857600080fd5b506104116111a1565b60405161041e9190612995565b60405180910390f35b34801561043357600080fd5b5061044e60048036038101906104499190612bb8565b611233565b005b34801561045c57600080fd5b5061047760048036038101906104729190612d2d565b611249565b005b34801561048557600080fd5b506104a0600480360381019061049b91906129ed565b6112ab565b6040516104ad9190612995565b60405180910390f35b3480156104c257600080fd5b506104dd60048036038101906104d891906129ed565b611313565b6040516104ea9190612ec9565b60405180910390f35b3480156104ff57600080fd5b5061051a60048036038101906105159190612eeb565b611535565b60405161052791906128ea565b60405180910390f35b34801561053c57600080fd5b5061055760048036038101906105529190612ff8565b6115c9565b005b34801561056557600080fd5b50610580600480360381019061057b9190612b5f565b6115e5565b005b60007f80ac58cd000000000000000000000000000000000000000000000000000000007bffffffffffffffffffffffffffffffffffffffffffffffffffffffff1916827bffffffffffffffffffffffffffffffffffffffffffffffffffffffff1916148061064d57507f5b5e139f000000000000000000000000000000000000000000000000000000007bffffffffffffffffffffffffffffffffffffffffffffffffffffffff1916827bffffffffffffffffffffffffffffffffffffffffffffffffffffffff1916145b8061065d575061065c82611668565b5b9050919050565b606060008054610673906130c6565b80601f016020809104026020016040519081016040528092919081815260200182805461069f906130c6565b80156106ec5780601f106106c1576101008083540402835291602001916106ec565b820191906000526020600020905b8154815290600101906020018083116106cf57829003601f168201915b5050505050905090565b6000610701826116d2565b6004600083815260200190815260200160002060009054906101000a900473ffffffffffffffffffffffffffffffffffffffff169050919050565b600061074782611026565b90508073ffffffffffffffffffffffffffffffffffffffff168373ffffffffffffffffffffffffffffffffffffffff16036107b7576040517f08c379a00000000000000000000000000000000000000000000000000000000081526004016107ae90613169565b60405180910390fd5b8073ffffffffffffffffffffffffffffffffffffffff166107d661171d565b73ffffffffffffffffffffffffffffffffffffffff1614806108055750610804816107ff61171d565b611535565b5b610844576040517f08c379a000000000000000000000000000000000000000000000000000000000815260040161083b906131fb565b60405180910390fd5b61084e8383611725565b505050565b600c60009054906101000a900460ff1661086c57600080fd5b600b6000600e54815260200190815260200160002060020160009054906101000a900473ffffffffffffffffffffffffffffffffffffffff1673ffffffffffffffffffffffffffffffffffffffff163373ffffffffffffffffffffffffffffffffffffffff16036108dc57600080fd5b6010543411156109f557600073ffffffffffffffffffffffffffffffffffffffff16600f60009054906101000a900473ffffffffffffffffffffffffffffffffffffffff1673ffffffffffffffffffffffffffffffffffffffff16146109a857600f60009054906101000a900473ffffffffffffffffffffffffffffffffffffffff1673ffffffffffffffffffffffffffffffffffffffff166108fc6010549081150290604051600060405180830381858888f193505050501580156109a6573d6000803e3d6000fd5b505b3460108190555033600f60006101000a81548173ffffffffffffffffffffffffffffffffffffffff021916908373ffffffffffffffffffffffffffffffffffffffff160217905550610a43565b60003390508073ffffffffffffffffffffffffffffffffffffffff166108fc349081150290604051600060405180830381858888f19350505050158015610a40573d6000803e3d6000fd5b50505b565b610a56610a5061171d565b826117de565b610a95576040517f08c379a0000000000000000000000000000000000000000000000000000000008152600401610a8c9061328d565b60405180910390fd5b610aa0838383611873565b505050565b60105481565b610ab3611b6c565b7f0dadc72298efb4ccfdf340afcc710a079edf5a23d0c245cf1c947e44f8f83999604051610ae0906132f9565b60405180910390a160006010819055506001600c60006101000a81548160ff02191690831515021790555080600e819055506000600f60006101000a81548173ffffffffffffffffffffffffffffffffffffffff021916908373ffffffffffffffffffffffffffffffffffffffff16021790555050565b6000601054905090565b610b7c83838360405180602001604052806000815250611249565b505050565b610b89611b6c565b7f2c22f16efd1e8ea041ab2737beec2c576cfe7c477f6b015ffa763ca0654d1890604051610bb690613365565b60405180910390a16000600c60006101000a81548160ff0219169083151502179055506000600b6000600e54815260200190815260200160002060020160009054906101000a900473ffffffffffffffffffffffffffffffffffffffff1690506000600b6000600e548152602001908152602001600020600301549050600f60009054906101000a900473ffffffffffffffffffffffffffffffffffffffff16600a6000600e54815260200190815260200160002060006101000a81548173ffffffffffffffffffffffffffffffffffffffff021916908373ffffffffffffffffffffffffffffffffffffffff1602179055506040518060c00160405280600b6000600e5481526020019081526020016000206000018054610cd7906130c6565b80601f0160208091040260200160405190810160405280929190818152602001828054610d03906130c6565b8015610d505780601f10610d2557610100808354040283529160200191610d50565b820191906000526020600020905b815481529060010190602001808311610d3357829003601f168201915b505050505081526020016001151581526020018373ffffffffffffffffffffffffffffffffffffffff168152602001600f60009054906101000a900473ffffffffffffffffffffffffffffffffffffffff1673ffffffffffffffffffffffffffffffffffffffff168152602001828152602001600b6000600e5481526020019081526020016000206004018054610de6906130c6565b80601f0160208091040260200160405190810160405280929190818152602001828054610e12906130c6565b8015610e5f5780601f10610e3457610100808354040283529160200191610e5f565b820191906000526020600020905b815481529060010190602001808311610e4257829003601f168201915b5050505050815250600b6000600e5481526020019081526020016000206000820151816000019081610e919190613531565b5060208201518160010160006101000a81548160ff02191690831515021790555060408201518160010160016101000a81548173ffffffffffffffffffffffffffffffffffffffff021916908373ffffffffffffffffffffffffffffffffffffffff16021790555060608201518160020160006101000a81548173ffffffffffffffffffffffffffffffffffffffff021916908373ffffffffffffffffffffffffffffffffffffffff1602179055506080820151816003015560a0820151816004019081610f5f9190613531565b509050508173ffffffffffffffffffffffffffffffffffffffff166108fc6010549081150290604051600060405180830381858888f19350505050158015610fab573d6000803e3d6000fd5b50610fe5610fba600e54611026565b600f60009054906101000a900473ffffffffffffffffffffffffffffffffffffffff16600e54611873565b5050565b6000600a600083815260200190815260200160002060009054906101000a900473ffffffffffffffffffffffffffffffffffffffff169050919050565b60008061103283611bea565b9050600073ffffffffffffffffffffffffffffffffffffffff168173ffffffffffffffffffffffffffffffffffffffff16036110a3576040517f08c379a000000000000000000000000000000000000000000000000000000000815260040161109a9061364f565b60405180910390fd5b80915050919050565b60008073ffffffffffffffffffffffffffffffffffffffff168273ffffffffffffffffffffffffffffffffffffffff160361111c576040517f08c379a0000000000000000000000000000000000000000000000000000000008152600401611113906136e1565b60405180910390fd5b600360008373ffffffffffffffffffffffffffffffffffffffff1673ffffffffffffffffffffffffffffffffffffffff168152602001908152602001600020549050919050565b61116b611b6c565b6111756000611c27565b565b6000600660009054906101000a900473ffffffffffffffffffffffffffffffffffffffff16905090565b6060600180546111b0906130c6565b80601f01602080910402602001604051908101604052809291908181526020018280546111dc906130c6565b80156112295780601f106111fe57610100808354040283529160200191611229565b820191906000526020600020905b81548152906001019060200180831161120c57829003601f168201915b5050505050905090565b61124561123e61171d565b8383611ced565b5050565b61125a61125461171d565b836117de565b611299576040517f08c379a00000000000000000000000000000000000000000000000000000000081526004016112909061328d565b60405180910390fd5b6112a584848484611e59565b50505050565b60606112b6826116d2565b60006112c0611eb5565b905060008151116112e0576040518060200160405280600081525061130b565b806112ea84611ef2565b6040516020016112fb92919061373d565b6040516020818303038152906040525b915050919050565b61131b6127d2565b600b60008381526020019081526020016000206040518060c0016040529081600082018054611349906130c6565b80601f0160208091040260200160405190810160405280929190818152602001828054611375906130c6565b80156113c25780601f10611397576101008083540402835291602001916113c2565b820191906000526020600020905b8154815290600101906020018083116113a557829003601f168201915b505050505081526020016001820160009054906101000a900460ff161515151581526020016001820160019054906101000a900473ffffffffffffffffffffffffffffffffffffffff1673ffffffffffffffffffffffffffffffffffffffff1673ffffffffffffffffffffffffffffffffffffffff1681526020016002820160009054906101000a900473ffffffffffffffffffffffffffffffffffffffff1673ffffffffffffffffffffffffffffffffffffffff1673ffffffffffffffffffffffffffffffffffffffff168152602001600382015481526020016004820180546114ac906130c6565b80601f01602080910402602001604051908101604052809291908181526020018280546114d8906130c6565b80156115255780601f106114fa57610100808354040283529160200191611525565b820191906000526020600020905b81548152906001019060200180831161150857829003601f168201915b5050505050815250509050919050565b6000600560008473ffffffffffffffffffffffffffffffffffffffff1673ffffffffffffffffffffffffffffffffffffffff16815260200190815260200160002060008373ffffffffffffffffffffffffffffffffffffffff1673ffffffffffffffffffffffffffffffffffffffff16815260200190815260200160002060009054906101000a900460ff16905092915050565b6115d1611b6c565b6115df848484846001611fc0565b50505050565b6115ed611b6c565b600073ffffffffffffffffffffffffffffffffffffffff168173ffffffffffffffffffffffffffffffffffffffff160361165c576040517f08c379a0000000000000000000000000000000000000000000000000000000008152600401611653906137d3565b60405180910390fd5b61166581611c27565b50565b60007f01ffc9a7000000000000000000000000000000000000000000000000000000007bffffffffffffffffffffffffffffffffffffffffffffffffffffffff1916827bffffffffffffffffffffffffffffffffffffffffffffffffffffffff1916149050919050565b6116db816121ce565b61171a576040517f08c379a00000000000000000000000000000000000000000000000000000000081526004016117119061364f565b60405180910390fd5b50565b600033905090565b816004600083815260200190815260200160002060006101000a81548173ffffffffffffffffffffffffffffffffffffffff021916908373ffffffffffffffffffffffffffffffffffffffff160217905550808273ffffffffffffffffffffffffffffffffffffffff1661179883611026565b73ffffffffffffffffffffffffffffffffffffffff167f8c5be1e5ebec7d5bd14f71427d1e84f3dd0314c0f7b2291e5b200ac8c7c3b92560405160405180910390a45050565b6000806117ea83611026565b90508073ffffffffffffffffffffffffffffffffffffffff168473ffffffffffffffffffffffffffffffffffffffff16148061182c575061182b8185611535565b5b8061186a57508373ffffffffffffffffffffffffffffffffffffffff16611852846106f6565b73ffffffffffffffffffffffffffffffffffffffff16145b91505092915050565b8273ffffffffffffffffffffffffffffffffffffffff1661189382611026565b73ffffffffffffffffffffffffffffffffffffffff16146118e9576040517f08c379a00000000000000000000000000000000000000000000000000000000081526004016118e090613865565b60405180910390fd5b600073ffffffffffffffffffffffffffffffffffffffff168273ffffffffffffffffffffffffffffffffffffffff1603611958576040517f08c379a000000000000000000000000000000000000000000000000000000000815260040161194f906138f7565b60405180910390fd5b611965838383600161220f565b8273ffffffffffffffffffffffffffffffffffffffff1661198582611026565b73ffffffffffffffffffffffffffffffffffffffff16146119db576040517f08c379a00000000000000000000000000000000000000000000000000000000081526004016119d290613865565b60405180910390fd5b6004600082815260200190815260200160002060006101000a81549073ffffffffffffffffffffffffffffffffffffffff02191690556001600360008573ffffffffffffffffffffffffffffffffffffffff1673ffffffffffffffffffffffffffffffffffffffff168152602001908152602001600020600082825403925050819055506001600360008473ffffffffffffffffffffffffffffffffffffffff1673ffffffffffffffffffffffffffffffffffffffff16815260200190815260200160002060008282540192505081905550816002600083815260200190815260200160002060006101000a81548173ffffffffffffffffffffffffffffffffffffffff021916908373ffffffffffffffffffffffffffffffffffffffff160217905550808273ffffffffffffffffffffffffffffffffffffffff168473ffffffffffffffffffffffffffffffffffffffff167fddf252ad1be2c89b69c2b068fc378daa952ba7f163c4a11628f55a4df523b3ef60405160405180910390a4611b678383836001612215565b505050565b611b7461171d565b73ffffffffffffffffffffffffffffffffffffffff16611b92611177565b73ffffffffffffffffffffffffffffffffffffffff1614611be8576040517f08c379a0000000000000000000000000000000000000000000000000000000008152600401611bdf90613963565b60405180910390fd5b565b60006002600083815260200190815260200160002060009054906101000a900473ffffffffffffffffffffffffffffffffffffffff169050919050565b6000600660009054906101000a900473ffffffffffffffffffffffffffffffffffffffff16905081600660006101000a81548173ffffffffffffffffffffffffffffffffffffffff021916908373ffffffffffffffffffffffffffffffffffffffff1602179055508173ffffffffffffffffffffffffffffffffffffffff168173ffffffffffffffffffffffffffffffffffffffff167f8be0079c531659141344cd1fd0a4f28419497f9722a3daafe3b4186f6b6457e060405160405180910390a35050565b8173ffffffffffffffffffffffffffffffffffffffff168373ffffffffffffffffffffffffffffffffffffffff1603611d5b576040517f08c379a0000000000000000000000000000000000000000000000000000000008152600401611d52906139cf565b60405180910390fd5b80600560008573ffffffffffffffffffffffffffffffffffffffff1673ffffffffffffffffffffffffffffffffffffffff16815260200190815260200160002060008473ffffffffffffffffffffffffffffffffffffffff1673ffffffffffffffffffffffffffffffffffffffff16815260200190815260200160002060006101000a81548160ff0219169083151502179055508173ffffffffffffffffffffffffffffffffffffffff168373ffffffffffffffffffffffffffffffffffffffff167f17307eab39ab6107e8899845ad3d59bd9653f200f220920489ca2b5937696c3183604051611e4c91906128ea565b60405180910390a3505050565b611e64848484611873565b611e708484848461221b565b611eaf576040517f08c379a0000000000000000000000000000000000000000000000000000000008152600401611ea690613a61565b60405180910390fd5b50505050565b60606040518060400160405280601a81526020017f697066733a2f2f68617070794d6f6e6b6579426173655552492f000000000000815250905090565b606060006001611f01846123a2565b01905060008167ffffffffffffffff811115611f2057611f1f612c02565b5b6040519080825280601f01601f191660200182016040528015611f525781602001600182028036833780820191505090505b509050600082602001820190505b600115611fb5578080600190039150507f3031323334353637383961626364656600000000000000000000000000000000600a86061a8153600a8581611fa957611fa8613a81565b5b04945060008503611f60575b819350505050919050565b611fc8611b6c565b7f0d4ce4dcd44cbbaa308c10eafc432d124f56fc6ba83122f40982142fed88ecf4604051611ff590613b22565b60405180910390a16000612009600d6124f5565b9050612015600d612503565b61201f8682612519565b85600a600083815260200190815260200160002060006101000a81548173ffffffffffffffffffffffffffffffffffffffff021916908373ffffffffffffffffffffffffffffffffffffffff1602179055506040518060c0016040528086815260200183151581526020018773ffffffffffffffffffffffffffffffffffffffff1681526020018773ffffffffffffffffffffffffffffffffffffffff16815260200184815260200185815250600b600083815260200190815260200160002060008201518160000190816120f49190613531565b5060208201518160010160006101000a81548160ff02191690831515021790555060408201518160010160016101000a81548173ffffffffffffffffffffffffffffffffffffffff021916908373ffffffffffffffffffffffffffffffffffffffff16021790555060608201518160020160006101000a81548173ffffffffffffffffffffffffffffffffffffffff021916908373ffffffffffffffffffffffffffffffffffffffff1602179055506080820151816003015560a08201518160040190816121c29190613531565b50905050505050505050565b60008073ffffffffffffffffffffffffffffffffffffffff166121f083611bea565b73ffffffffffffffffffffffffffffffffffffffff1614159050919050565b50505050565b50505050565b600061223c8473ffffffffffffffffffffffffffffffffffffffff16612537565b15612395578373ffffffffffffffffffffffffffffffffffffffff1663150b7a0261226561171d565b8786866040518563ffffffff1660e01b81526004016122879493929190613b97565b6020604051808303816000875af19250505080156122c357506040513d601f19601f820116820180604052508101906122c09190613bf8565b60015b612345573d80600081146122f3576040519150601f19603f3d011682016040523d82523d6000602084013e6122f8565b606091505b50600081510361233d576040517f08c379a000000000000000000000000000000000000000000000000000000000815260040161233490613a61565b60405180910390fd5b805181602001fd5b63150b7a0260e01b7bffffffffffffffffffffffffffffffffffffffffffffffffffffffff1916817bffffffffffffffffffffffffffffffffffffffffffffffffffffffff19161491505061239a565b600190505b949350505050565b600080600090507a184f03e93ff9f4daa797ed6e38ed64bf6a1f0100000000000000008310612400577a184f03e93ff9f4daa797ed6e38ed64bf6a1f01000000000000000083816123f6576123f5613a81565b5b0492506040810190505b6d04ee2d6d415b85acef8100000000831061243d576d04ee2d6d415b85acef8100000000838161243357612432613a81565b5b0492506020810190505b662386f26fc10000831061246c57662386f26fc10000838161246257612461613a81565b5b0492506010810190505b6305f5e1008310612495576305f5e100838161248b5761248a613a81565b5b0492506008810190505b61271083106124ba5761271083816124b0576124af613a81565b5b0492506004810190505b606483106124dd57606483816124d3576124d2613a81565b5b0492506002810190505b600a83106124ec576001810190505b80915050919050565b600081600001549050919050565b6001816000016000828254019250508190555050565b61253382826040518060200160405280600081525061255a565b5050565b6000808273ffffffffffffffffffffffffffffffffffffffff163b119050919050565b61256483836125b5565b612571600084848461221b565b6125b0576040517f08c379a00000000000000000000000000000000000000000000000000000000081526004016125a790613a61565b60405180910390fd5b505050565b600073ffffffffffffffffffffffffffffffffffffffff168273ffffffffffffffffffffffffffffffffffffffff1603612624576040517f08c379a000000000000000000000000000000000000000000000000000000000815260040161261b90613c71565b60405180910390fd5b61262d816121ce565b1561266d576040517f08c379a000000000000000000000000000000000000000000000000000000000815260040161266490613cdd565b60405180910390fd5b61267b60008383600161220f565b612684816121ce565b156126c4576040517f08c379a00000000000000000000000000000000000000000000000000000000081526004016126bb90613cdd565b60405180910390fd5b6001600360008473ffffffffffffffffffffffffffffffffffffffff1673ffffffffffffffffffffffffffffffffffffffff16815260200190815260200160002060008282540192505081905550816002600083815260200190815260200160002060006101000a81548173ffffffffffffffffffffffffffffffffffffffff021916908373ffffffffffffffffffffffffffffffffffffffff160217905550808273ffffffffffffffffffffffffffffffffffffffff16600073ffffffffffffffffffffffffffffffffffffffff167fddf252ad1be2c89b69c2b068fc378daa952ba7f163c4a11628f55a4df523b3ef60405160405180910390a46127ce600083836001612215565b5050565b6040518060c0016040528060608152602001600015158152602001600073ffffffffffffffffffffffffffffffffffffffff168152602001600073ffffffffffffffffffffffffffffffffffffffff16815260200160008152602001606081525090565b6000604051905090565b600080fd5b600080fd5b60007fffffffff0000000000000000000000000000000000000000000000000000000082169050919050565b61287f8161284a565b811461288a57600080fd5b50565b60008135905061289c81612876565b92915050565b6000602082840312156128b8576128b7612840565b5b60006128c68482850161288d565b91505092915050565b60008115159050919050565b6128e4816128cf565b82525050565b60006020820190506128ff60008301846128db565b92915050565b600081519050919050565b600082825260208201905092915050565b60005b8381101561293f578082015181840152602081019050612924565b60008484015250505050565b6000601f19601f8301169050919050565b600061296782612905565b6129718185612910565b9350612981818560208601612921565b61298a8161294b565b840191505092915050565b600060208201905081810360008301526129af818461295c565b905092915050565b6000819050919050565b6129ca816129b7565b81146129d557600080fd5b50565b6000813590506129e7816129c1565b92915050565b600060208284031215612a0357612a02612840565b5b6000612a11848285016129d8565b91505092915050565b600073ffffffffffffffffffffffffffffffffffffffff82169050919050565b6000612a4582612a1a565b9050919050565b612a5581612a3a565b82525050565b6000602082019050612a706000830184612a4c565b92915050565b612a7f81612a3a565b8114612a8a57600080fd5b50565b600081359050612a9c81612a76565b92915050565b60008060408385031215612ab957612ab8612840565b5b6000612ac785828601612a8d565b9250506020612ad8858286016129d8565b9150509250929050565b600080600060608486031215612afb57612afa612840565b5b6000612b0986828701612a8d565b9350506020612b1a86828701612a8d565b9250506040612b2b868287016129d8565b9150509250925092565b612b3e816129b7565b82525050565b6000602082019050612b596000830184612b35565b92915050565b600060208284031215612b7557612b74612840565b5b6000612b8384828501612a8d565b91505092915050565b612b95816128cf565b8114612ba057600080fd5b50565b600081359050612bb281612b8c565b92915050565b60008060408385031215612bcf57612bce612840565b5b6000612bdd85828601612a8d565b9250506020612bee85828601612ba3565b9150509250929050565b600080fd5b600080fd5b7f4e487b7100000000000000000000000000000000000000000000000000000000600052604160045260246000fd5b612c3a8261294b565b810181811067ffffffffffffffff82111715612c5957612c58612c02565b5b80604052505050565b6000612c6c612836565b9050612c788282612c31565b919050565b600067ffffffffffffffff821115612c9857612c97612c02565b5b612ca18261294b565b9050602081019050919050565b82818337600083830152505050565b6000612cd0612ccb84612c7d565b612c62565b905082815260208101848484011115612cec57612ceb612bfd565b5b612cf7848285612cae565b509392505050565b600082601f830112612d1457612d13612bf8565b5b8135612d24848260208601612cbd565b91505092915050565b60008060008060808587031215612d4757612d46612840565b5b6000612d5587828801612a8d565b9450506020612d6687828801612a8d565b9350506040612d77878288016129d8565b925050606085013567ffffffffffffffff811115612d9857612d97612845565b5b612da487828801612cff565b91505092959194509250565b600082825260208201905092915050565b6000612dcc82612905565b612dd68185612db0565b9350612de6818560208601612921565b612def8161294b565b840191505092915050565b612e03816128cf565b82525050565b6000612e1482612a1a565b9050919050565b612e2481612e09565b82525050565b612e33816129b7565b82525050565b600060c0830160008301518482036000860152612e568282612dc1565b9150506020830151612e6b6020860182612dfa565b506040830151612e7e6040860182612e1b565b506060830151612e916060860182612e1b565b506080830151612ea46080860182612e2a565b5060a083015184820360a0860152612ebc8282612dc1565b9150508091505092915050565b60006020820190508181036000830152612ee38184612e39565b905092915050565b60008060408385031215612f0257612f01612840565b5b6000612f1085828601612a8d565b9250506020612f2185828601612a8d565b9150509250929050565b612f3481612e09565b8114612f3f57600080fd5b50565b600081359050612f5181612f2b565b92915050565b600067ffffffffffffffff821115612f7257612f71612c02565b5b612f7b8261294b565b9050602081019050919050565b6000612f9b612f9684612f57565b612c62565b905082815260208101848484011115612fb757612fb6612bfd565b5b612fc2848285612cae565b509392505050565b600082601f830112612fdf57612fde612bf8565b5b8135612fef848260208601612f88565b91505092915050565b6000806000806080858703121561301257613011612840565b5b600061302087828801612f42565b945050602085013567ffffffffffffffff81111561304157613040612845565b5b61304d87828801612fca565b935050604085013567ffffffffffffffff81111561306e5761306d612845565b5b61307a87828801612fca565b925050606061308b878288016129d8565b91505092959194509250565b7f4e487b7100000000000000000000000000000000000000000000000000000000600052602260045260246000fd5b600060028204905060018216806130de57607f821691505b6020821081036130f1576130f0613097565b5b50919050565b7f4552433732313a20617070726f76616c20746f2063757272656e74206f776e6560008201527f7200000000000000000000000000000000000000000000000000000000000000602082015250565b6000613153602183612910565b915061315e826130f7565b604082019050919050565b6000602082019050818103600083015261318281613146565b9050919050565b7f4552433732313a20617070726f76652063616c6c6572206973206e6f7420746f60008201527f6b656e206f776e6572206f7220617070726f76656420666f7220616c6c000000602082015250565b60006131e5603d83612910565b91506131f082613189565b604082019050919050565b60006020820190508181036000830152613214816131d8565b9050919050565b7f4552433732313a2063616c6c6572206973206e6f7420746f6b656e206f776e6560008201527f72206f7220617070726f76656400000000000000000000000000000000000000602082015250565b6000613277602d83612910565b91506132828261321b565b604082019050919050565b600060208201905081810360008301526132a68161326a565b9050919050565b7f42696464696e6720686173207374617274656400000000000000000000000000600082015250565b60006132e3601383612910565b91506132ee826132ad565b602082019050919050565b60006020820190508181036000830152613312816132d6565b9050919050565b7f42696464696e6720697320636c6f736564000000000000000000000000000000600082015250565b600061334f601183612910565b915061335a82613319565b602082019050919050565b6000602082019050818103600083015261337e81613342565b9050919050565b60008190508160005260206000209050919050565b60006020601f8301049050919050565b600082821b905092915050565b6000600883026133e77fffffffffffffffffffffffffffffffffffffffffffffffffffffffffffffffff826133aa565b6133f186836133aa565b95508019841693508086168417925050509392505050565b6000819050919050565b600061342e613429613424846129b7565b613409565b6129b7565b9050919050565b6000819050919050565b61344883613413565b61345c61345482613435565b8484546133b7565b825550505050565b600090565b613471613464565b61347c81848461343f565b505050565b5b818110156134a057613495600082613469565b600181019050613482565b5050565b601f8211156134e5576134b681613385565b6134bf8461339a565b810160208510156134ce578190505b6134e26134da8561339a565b830182613481565b50505b505050565b600082821c905092915050565b6000613508600019846008026134ea565b1980831691505092915050565b600061352183836134f7565b9150826002028217905092915050565b61353a82612905565b67ffffffffffffffff81111561355357613552612c02565b5b61355d82546130c6565b6135688282856134a4565b600060209050601f83116001811461359b5760008415613589578287015190505b6135938582613515565b8655506135fb565b601f1984166135a986613385565b60005b828110156135d1578489015182556001820191506020850194506020810190506135ac565b868310156135ee57848901516135ea601f8916826134f7565b8355505b6001600288020188555050505b505050505050565b7f4552433732313a20696e76616c696420746f6b656e2049440000000000000000600082015250565b6000613639601883612910565b915061364482613603565b602082019050919050565b600060208201905081810360008301526136688161362c565b9050919050565b7f4552433732313a2061646472657373207a65726f206973206e6f74206120766160008201527f6c6964206f776e65720000000000000000000000000000000000000000000000602082015250565b60006136cb602983612910565b91506136d68261366f565b604082019050919050565b600060208201905081810360008301526136fa816136be565b9050919050565b600081905092915050565b600061371782612905565b6137218185613701565b9350613731818560208601612921565b80840191505092915050565b6000613749828561370c565b9150613755828461370c565b91508190509392505050565b7f4f776e61626c653a206e6577206f776e657220697320746865207a65726f206160008201527f6464726573730000000000000000000000000000000000000000000000000000602082015250565b60006137bd602683612910565b91506137c882613761565b604082019050919050565b600060208201905081810360008301526137ec816137b0565b9050919050565b7f4552433732313a207472616e736665722066726f6d20696e636f72726563742060008201527f6f776e6572000000000000000000000000000000000000000000000000000000602082015250565b600061384f602583612910565b915061385a826137f3565b604082019050919050565b6000602082019050818103600083015261387e81613842565b9050919050565b7f4552433732313a207472616e7366657220746f20746865207a65726f2061646460008201527f7265737300000000000000000000000000000000000000000000000000000000602082015250565b60006138e1602483612910565b91506138ec82613885565b604082019050919050565b60006020820190508181036000830152613910816138d4565b9050919050565b7f4f776e61626c653a2063616c6c6572206973206e6f7420746865206f776e6572600082015250565b600061394d602083612910565b915061395882613917565b602082019050919050565b6000602082019050818103600083015261397c81613940565b9050919050565b7f4552433732313a20617070726f766520746f2063616c6c657200000000000000600082015250565b60006139b9601983612910565b91506139c482613983565b602082019050919050565b600060208201905081810360008301526139e8816139ac565b9050919050565b7f4552433732313a207472616e7366657220746f206e6f6e20455243373231526560008201527f63656976657220696d706c656d656e7465720000000000000000000000000000602082015250565b6000613a4b603283612910565b9150613a56826139ef565b604082019050919050565b60006020820190508181036000830152613a7a81613a3e565b9050919050565b7f4e487b7100000000000000000000000000000000000000000000000000000000600052601260045260246000fd5b7f52657669657765722068617320617070726f76656420706170657220616e642060008201527f4e4654206973206d696e74656400000000000000000000000000000000000000602082015250565b6000613b0c602d83612910565b9150613b1782613ab0565b604082019050919050565b60006020820190508181036000830152613b3b81613aff565b9050919050565b600081519050919050565b600082825260208201905092915050565b6000613b6982613b42565b613b738185613b4d565b9350613b83818560208601612921565b613b8c8161294b565b840191505092915050565b6000608082019050613bac6000830187612a4c565b613bb96020830186612a4c565b613bc66040830185612b35565b8181036060830152613bd88184613b5e565b905095945050505050565b600081519050613bf281612876565b92915050565b600060208284031215613c0e57613c0d612840565b5b6000613c1c84828501613be3565b91505092915050565b7f4552433732313a206d696e7420746f20746865207a65726f2061646472657373600082015250565b6000613c5b602083612910565b9150613c6682613c25565b602082019050919050565b60006020820190508181036000830152613c8a81613c4e565b9050919050565b7f4552433732313a20746f6b656e20616c7265616479206d696e74656400000000600082015250565b6000613cc7601c83612910565b9150613cd282613c91565b602082019050919050565b60006020820190508181036000830152613cf681613cba565b905091905056fea26469706673582212208a004539b3504e077d7a8e49517be84b492584d4d151234d1933458c2aae9dab64736f6c63430008130033",
  "immutableReferences": {},
  "source": "// SPDX-License-Identifier: MIT\r\n//pragma solidity ^0.8.9;\r\npragma solidity >=0.5.0 <0.9.0;\r\n\r\nimport \"@openzeppelin/contracts/token/ERC721/ERC721.sol\";\r\nimport \"@openzeppelin/contracts/access/Ownable.sol\";\r\nimport \"@openzeppelin/contracts/utils/Counters.sol\";\r\n\r\ncontract ResearchPapers is ERC721, Ownable {\r\n    //all events\r\n    event e_closebidding(string msg);\r\n    event e_openbidding(string msg);\r\n    event e_NFTMint(string msg);\r\n    \r\n    using Counters for Counters.Counter;\r\n\r\n    //////////data structures INTIALIZATIONS/DECLARATIONS///////////////////\r\n    struct PaperDetails{\r\n        string name;\r\n        bool verified;\r\n        address payable previous_owner;\r\n        address payable present_owner;\r\n        uint id;\r\n        string paper_url;\r\n    }\r\n    PaperDetails[] paperDetails;\r\n    struct PersonalDetails {\r\n        string name;\r\n        //designation can be Author, Owner, Auctioneer, Bidder or Reviewer\r\n        string designation;\r\n    }\r\n    mapping (address => PersonalDetails) add_to_per;\r\n    address ownerAddress;\r\n    //mapping between token ID and owner of RP address\r\n    mapping (uint256 => address) nft_to_personlink;\r\n    mapping (uint256 => PaperDetails) nft_to_paperlink;\r\n    bool start = false;\r\n    Counters.Counter private _tokenIdCounter;\r\n\r\n    constructor() ERC721(\"ResearchPaperBidding\", \"RPB\") {\r\n        ownerAddress = msg.sender;\r\n    }\r\n\r\n    \r\n    //////////////Modifiers/////////////////\r\n    modifier onlyBidOpen(){\r\n        require(start);\r\n        _;\r\n    }\r\n\r\n    modifier notOwner(){\r\n        require(msg.sender != nft_to_paperlink[present_token_id].present_owner);\r\n        _;\r\n    }\r\n\r\n    ///////////////////OPERATIONS///////////////////////////////////////////\r\n\r\n    function _baseURI() internal pure override returns (string memory) {\r\n        return \"ipfs://happyMonkeyBaseURI/\";\r\n    }\r\n\r\n    function safeMint(address payable to, string memory name, string memory paper_url, uint id, bool verified) private onlyOwner{\r\n        emit e_NFTMint(\"Reviewer has approved paper and NFT is minted\");\r\n        uint256 tokenId = _tokenIdCounter.current();\r\n        _tokenIdCounter.increment();\r\n        _safeMint(to, tokenId);\r\n        //link NFT token to owner and NFT token to paper\r\n        nft_to_personlink[tokenId] = to;\r\n        nft_to_paperlink[tokenId] = PaperDetails(name, verified, to, to, id, paper_url);\r\n    }\r\n\r\n    //upload and review the research paper\r\n    // function uploadPaperAndValidate(address payable author, string memory paper_name) public onlyOwner{\r\n    //     //assuming the validation is done correctly, updating the verified parmeter of PaperDetails to true\r\n    //     safeMint(author, paper_name, true);\r\n    // }\r\n\r\n    //approve and create NFT token for the research paper\r\n    function approveAndcreateNFT(address payable author, string memory paper_name, string memory paper_url, uint id) public onlyOwner{\r\n        //assuming the validation is done correctly, updating the verified parmeter of PaperDetails to true\r\n        safeMint(author, paper_name, paper_url, id, true);\r\n    }\r\n\r\n\r\n\r\n    ///////////////////////////////////Bidding////////////////////////////////////////////////////\r\n\r\n    //start bidding by owner/auctioneer\r\n    uint present_token_id;\r\n    address payable temp = payable(address(0));\r\n    function start_bidding(uint id) public onlyOwner{\r\n        emit e_openbidding(\"Bidding has started\");\r\n        max_price = 0;\r\n        start = true;\r\n        present_token_id = id;\r\n        //comment the below\r\n        temp = payable(address(0));\r\n    }\r\n\r\n    //assumption only one item can be bidded at a time\r\n    uint public max_price = 0;\r\n    //uncomment the below\r\n    //address payable temp;\r\n    function bid() public onlyBidOpen notOwner payable{\r\n        if(msg.value > max_price){\r\n            //comment below if statement\r\n            if(temp != payable(address(0))){\r\n                temp.transfer(max_price);\r\n            }\r\n            max_price = msg.value;\r\n            temp = payable(msg.sender);\r\n        }\r\n        else {\r\n            address payable temp_sender;\r\n            temp_sender = payable(msg.sender);\r\n            temp_sender.transfer(msg.value);\r\n        }\r\n    }\r\n\r\n    //close bidding\r\n    function close_bidding() public payable onlyOwner{\r\n        emit e_closebidding(\"Bidding is closed\");\r\n        start = false;\r\n        address payable previous_own = nft_to_paperlink[present_token_id].present_owner;\r\n\r\n        uint id = nft_to_paperlink[present_token_id].id;\r\n\r\n        nft_to_personlink[present_token_id] = temp;\r\n        nft_to_paperlink[present_token_id] = PaperDetails(nft_to_paperlink[present_token_id].name, true, previous_own, temp, id, nft_to_paperlink[present_token_id].paper_url);\r\n        previous_own.transfer(max_price);\r\n        _transfer(ownerOf(present_token_id), temp, present_token_id);\r\n    }\r\n\r\n\r\n    //these methods are only meant for testing purpose\r\n\r\n     //debug nft_to_paperlink\r\n     function display_PaperDetails(uint256 id) public view returns (PaperDetails memory){\r\n        return nft_to_paperlink[id];\r\n    }\r\n\r\n    //debug max bid price so far\r\n     function display_maxBidPrice() public view returns (uint){\r\n        return max_price;\r\n    }\r\n\r\n    //display nft_to_personlink\r\n    function display_PersonDetails(uint id) public view returns (address){\r\n        return nft_to_personlink[id];\r\n    }\r\n\r\n}",
  "sourcePath": "E:\\Career\\University at Buffalo\\Semester 2\\CSE_Blockchain\\Project\\playground\\research-papers-bid\\contracts\\ResearchPapers.sol",
  "compiler": {
    "name": "solc",
    "version": "0.8.19+commit.7dd6d404.Emscripten.clang"
  },
  "schemaVersion": "3.4.13",
  "updatedAt": "2023-05-09T05:59:02.188Z",
  "networkType": "ethereum",
  "devdoc": {
    "events": {
      "Approval(address,address,uint256)": {
        "details": "Emitted when `owner` enables `approved` to manage the `tokenId` token."
      },
      "ApprovalForAll(address,address,bool)": {
        "details": "Emitted when `owner` enables or disables (`approved`) `operator` to manage all of its assets."
      },
      "Transfer(address,address,uint256)": {
        "details": "Emitted when `tokenId` token is transferred from `from` to `to`."
      }
    },
    "kind": "dev",
    "methods": {
      "approve(address,uint256)": {
        "details": "See {IERC721-approve}."
      },
      "balanceOf(address)": {
        "details": "See {IERC721-balanceOf}."
      },
      "getApproved(uint256)": {
        "details": "See {IERC721-getApproved}."
      },
      "isApprovedForAll(address,address)": {
        "details": "See {IERC721-isApprovedForAll}."
      },
      "name()": {
        "details": "See {IERC721Metadata-name}."
      },
      "owner()": {
        "details": "Returns the address of the current owner."
      },
      "ownerOf(uint256)": {
        "details": "See {IERC721-ownerOf}."
      },
      "renounceOwnership()": {
        "details": "Leaves the contract without owner. It will not be possible to call `onlyOwner` functions anymore. Can only be called by the current owner. NOTE: Renouncing ownership will leave the contract without an owner, thereby removing any functionality that is only available to the owner."
      },
      "safeTransferFrom(address,address,uint256)": {
        "details": "See {IERC721-safeTransferFrom}."
      },
      "safeTransferFrom(address,address,uint256,bytes)": {
        "details": "See {IERC721-safeTransferFrom}."
      },
      "setApprovalForAll(address,bool)": {
        "details": "See {IERC721-setApprovalForAll}."
      },
      "supportsInterface(bytes4)": {
        "details": "See {IERC165-supportsInterface}."
      },
      "symbol()": {
        "details": "See {IERC721Metadata-symbol}."
      },
      "tokenURI(uint256)": {
        "details": "See {IERC721Metadata-tokenURI}."
      },
      "transferFrom(address,address,uint256)": {
        "details": "See {IERC721-transferFrom}."
      },
      "transferOwnership(address)": {
        "details": "Transfers ownership of the contract to a new account (`newOwner`). Can only be called by the current owner."
      }
    },
    "version": 1
  },
  "userdoc": {
    "kind": "user",
    "methods": {},
    "version": 1
  }
}