{
  "contractName": "ResearchPapers",
  "abi": [
    {
      "inputs": [],
      "stateMutability": "nonpayable",
      "type": "constructor"
    },
    {
      "anonymous": false,
      "inputs": [
        {
          "indexed": true,
          "internalType": "address",
          "name": "owner",
          "type": "address"
        },
        {
          "indexed": true,
          "internalType": "address",
          "name": "approved",
          "type": "address"
        },
        {
          "indexed": true,
          "internalType": "uint256",
          "name": "tokenId",
          "type": "uint256"
        }
      ],
      "name": "Approval",
      "type": "event"
    },
    {
      "anonymous": false,
      "inputs": [
        {
          "indexed": true,
          "internalType": "address",
          "name": "owner",
          "type": "address"
        },
        {
          "indexed": true,
          "internalType": "address",
          "name": "operator",
          "type": "address"
        },
        {
          "indexed": false,
          "internalType": "bool",
          "name": "approved",
          "type": "bool"
        }
      ],
      "name": "ApprovalForAll",
      "type": "event"
    },
    {
      "anonymous": false,
      "inputs": [
        {
          "indexed": true,
          "internalType": "address",
          "name": "previousOwner",
          "type": "address"
        },
        {
          "indexed": true,
          "internalType": "address",
          "name": "newOwner",
          "type": "address"
        }
      ],
      "name": "OwnershipTransferred",
      "type": "event"
    },
    {
      "anonymous": false,
      "inputs": [
        {
          "indexed": true,
          "internalType": "address",
          "name": "from",
          "type": "address"
        },
        {
          "indexed": true,
          "internalType": "address",
          "name": "to",
          "type": "address"
        },
        {
          "indexed": true,
          "internalType": "uint256",
          "name": "tokenId",
          "type": "uint256"
        }
      ],
      "name": "Transfer",
      "type": "event"
    },
    {
      "inputs": [
        {
          "internalType": "address",
          "name": "to",
          "type": "address"
        },
        {
          "internalType": "uint256",
          "name": "tokenId",
          "type": "uint256"
        }
      ],
      "name": "approve",
      "outputs": [],
      "stateMutability": "nonpayable",
      "type": "function"
    },
    {
      "inputs": [
        {
          "internalType": "address",
          "name": "owner",
          "type": "address"
        }
      ],
      "name": "balanceOf",
      "outputs": [
        {
          "internalType": "uint256",
          "name": "",
          "type": "uint256"
        }
      ],
      "stateMutability": "view",
      "type": "function"
    },
    {
      "inputs": [
        {
          "internalType": "uint256",
          "name": "tokenId",
          "type": "uint256"
        }
      ],
      "name": "getApproved",
      "outputs": [
        {
          "internalType": "address",
          "name": "",
          "type": "address"
        }
      ],
      "stateMutability": "view",
      "type": "function"
    },
    {
      "inputs": [
        {
          "internalType": "address",
          "name": "owner",
          "type": "address"
        },
        {
          "internalType": "address",
          "name": "operator",
          "type": "address"
        }
      ],
      "name": "isApprovedForAll",
      "outputs": [
        {
          "internalType": "bool",
          "name": "",
          "type": "bool"
        }
      ],
      "stateMutability": "view",
      "type": "function"
    },
    {
      "inputs": [],
      "name": "max_price",
      "outputs": [
        {
          "internalType": "uint256",
          "name": "",
          "type": "uint256"
        }
      ],
      "stateMutability": "view",
      "type": "function"
    },
    {
      "inputs": [],
      "name": "name",
      "outputs": [
        {
          "internalType": "string",
          "name": "",
          "type": "string"
        }
      ],
      "stateMutability": "view",
      "type": "function"
    },
    {
      "inputs": [],
      "name": "owner",
      "outputs": [
        {
          "internalType": "address",
          "name": "",
          "type": "address"
        }
      ],
      "stateMutability": "view",
      "type": "function"
    },
    {
      "inputs": [
        {
          "internalType": "uint256",
          "name": "tokenId",
          "type": "uint256"
        }
      ],
      "name": "ownerOf",
      "outputs": [
        {
          "internalType": "address",
          "name": "",
          "type": "address"
        }
      ],
      "stateMutability": "view",
      "type": "function"
    },
    {
      "inputs": [],
      "name": "renounceOwnership",
      "outputs": [],
      "stateMutability": "nonpayable",
      "type": "function"
    },
    {
      "inputs": [
        {
          "internalType": "address",
          "name": "from",
          "type": "address"
        },
        {
          "internalType": "address",
          "name": "to",
          "type": "address"
        },
        {
          "internalType": "uint256",
          "name": "tokenId",
          "type": "uint256"
        }
      ],
      "name": "safeTransferFrom",
      "outputs": [],
      "stateMutability": "nonpayable",
      "type": "function"
    },
    {
      "inputs": [
        {
          "internalType": "address",
          "name": "from",
          "type": "address"
        },
        {
          "internalType": "address",
          "name": "to",
          "type": "address"
        },
        {
          "internalType": "uint256",
          "name": "tokenId",
          "type": "uint256"
        },
        {
          "internalType": "bytes",
          "name": "data",
          "type": "bytes"
        }
      ],
      "name": "safeTransferFrom",
      "outputs": [],
      "stateMutability": "nonpayable",
      "type": "function"
    },
    {
      "inputs": [
        {
          "internalType": "address",
          "name": "operator",
          "type": "address"
        },
        {
          "internalType": "bool",
          "name": "approved",
          "type": "bool"
        }
      ],
      "name": "setApprovalForAll",
      "outputs": [],
      "stateMutability": "nonpayable",
      "type": "function"
    },
    {
      "inputs": [
        {
          "internalType": "bytes4",
          "name": "interfaceId",
          "type": "bytes4"
        }
      ],
      "name": "supportsInterface",
      "outputs": [
        {
          "internalType": "bool",
          "name": "",
          "type": "bool"
        }
      ],
      "stateMutability": "view",
      "type": "function"
    },
    {
      "inputs": [],
      "name": "symbol",
      "outputs": [
        {
          "internalType": "string",
          "name": "",
          "type": "string"
        }
      ],
      "stateMutability": "view",
      "type": "function"
    },
    {
      "inputs": [
        {
          "internalType": "uint256",
          "name": "tokenId",
          "type": "uint256"
        }
      ],
      "name": "tokenURI",
      "outputs": [
        {
          "internalType": "string",
          "name": "",
          "type": "string"
        }
      ],
      "stateMutability": "view",
      "type": "function"
    },
    {
      "inputs": [
        {
          "internalType": "address",
          "name": "from",
          "type": "address"
        },
        {
          "internalType": "address",
          "name": "to",
          "type": "address"
        },
        {
          "internalType": "uint256",
          "name": "tokenId",
          "type": "uint256"
        }
      ],
      "name": "transferFrom",
      "outputs": [],
      "stateMutability": "nonpayable",
      "type": "function"
    },
    {
      "inputs": [
        {
          "internalType": "address",
          "name": "newOwner",
          "type": "address"
        }
      ],
      "name": "transferOwnership",
      "outputs": [],
      "stateMutability": "nonpayable",
      "type": "function"
    },
    {
      "inputs": [
        {
          "internalType": "address payable",
          "name": "author",
          "type": "address"
        },
        {
          "internalType": "string",
          "name": "paper_name",
          "type": "string"
        }
      ],
      "name": "uploadPaperAndValidate",
      "outputs": [],
      "stateMutability": "nonpayable",
      "type": "function"
    },
    {
      "inputs": [
        {
          "internalType": "uint256",
          "name": "id",
          "type": "uint256"
        }
      ],
      "name": "start_bidding",
      "outputs": [],
      "stateMutability": "nonpayable",
      "type": "function"
    },
    {
      "inputs": [],
      "name": "bid",
      "outputs": [],
      "stateMutability": "payable",
      "type": "function"
    },
    {
      "inputs": [],
      "name": "close_bidding",
      "outputs": [],
      "stateMutability": "payable",
      "type": "function"
    },
    {
      "inputs": [
        {
          "internalType": "uint256",
          "name": "id",
          "type": "uint256"
        }
      ],
      "name": "display_PaperDetails",
      "outputs": [
        {
          "components": [
            {
              "internalType": "string",
              "name": "name",
              "type": "string"
            },
            {
              "internalType": "bool",
              "name": "verified",
              "type": "bool"
            },
            {
              "internalType": "address payable",
              "name": "previous_owner",
              "type": "address"
            },
            {
              "internalType": "address payable",
              "name": "present_owner",
              "type": "address"
            }
          ],
          "internalType": "struct ResearchPapers.PaperDetails",
          "name": "",
          "type": "tuple"
        }
      ],
      "stateMutability": "view",
      "type": "function"
    },
    {
      "inputs": [],
      "name": "display_maxBidPrice",
      "outputs": [
        {
          "internalType": "uint256",
          "name": "",
          "type": "uint256"
        }
      ],
      "stateMutability": "view",
      "type": "function"
    },
    {
      "inputs": [
        {
          "internalType": "uint256",
          "name": "id",
          "type": "uint256"
        }
      ],
      "name": "display_PersonDetails",
      "outputs": [
        {
          "internalType": "address",
          "name": "",
          "type": "address"
        }
      ],
      "stateMutability": "view",
      "type": "function"
    }
  ],
  "bytecode": "0x60806040526000600c60006101000a81548160ff0219169083151502179055506000600f553480156200003157600080fd5b506040518060400160405280601481526020017f5265736561726368506170657242696464696e670000000000000000000000008152506040518060400160405280600381526020017f52504200000000000000000000000000000000000000000000000000000000008152508160009081620000af919062000473565b508060019081620000c1919062000473565b505050620000e4620000d86200012b60201b60201c565b6200013360201b60201c565b33600960006101000a81548173ffffffffffffffffffffffffffffffffffffffff021916908373ffffffffffffffffffffffffffffffffffffffff1602179055506200055a565b600033905090565b6000600660009054906101000a900473ffffffffffffffffffffffffffffffffffffffff16905081600660006101000a81548173ffffffffffffffffffffffffffffffffffffffff021916908373ffffffffffffffffffffffffffffffffffffffff1602179055508173ffffffffffffffffffffffffffffffffffffffff168173ffffffffffffffffffffffffffffffffffffffff167f8be0079c531659141344cd1fd0a4f28419497f9722a3daafe3b4186f6b6457e060405160405180910390a35050565b600081519050919050565b7f4e487b7100000000000000000000000000000000000000000000000000000000600052604160045260246000fd5b7f4e487b7100000000000000000000000000000000000000000000000000000000600052602260045260246000fd5b600060028204905060018216806200027b57607f821691505b60208210810362000291576200029062000233565b5b50919050565b60008190508160005260206000209050919050565b60006020601f8301049050919050565b600082821b905092915050565b600060088302620002fb7fffffffffffffffffffffffffffffffffffffffffffffffffffffffffffffffff82620002bc565b620003078683620002bc565b95508019841693508086168417925050509392505050565b6000819050919050565b6000819050919050565b6000620003546200034e62000348846200031f565b62000329565b6200031f565b9050919050565b6000819050919050565b620003708362000333565b620003886200037f826200035b565b848454620002c9565b825550505050565b600090565b6200039f62000390565b620003ac81848462000365565b505050565b5b81811015620003d457620003c860008262000395565b600181019050620003b2565b5050565b601f8211156200042357620003ed8162000297565b620003f884620002ac565b8101602085101562000408578190505b620004206200041785620002ac565b830182620003b1565b50505b505050565b600082821c905092915050565b6000620004486000198460080262000428565b1980831691505092915050565b600062000463838362000435565b9150826002028217905092915050565b6200047e82620001f9565b67ffffffffffffffff8111156200049a576200049962000204565b5b620004a6825462000262565b620004b3828285620003d8565b600060209050601f831160018114620004eb5760008415620004d6578287015190505b620004e2858262000455565b86555062000552565b601f198416620004fb8662000297565b60005b828110156200052557848901518255600182019150602085019450602081019050620004fe565b8683101562000545578489015162000541601f89168262000435565b8355505b6001600288020188555050505b505050505050565b61378f806200056a6000396000f3fe60806040526004361061014b5760003560e01c806360033865116100b6578063a22cb4651161006f578063a22cb46514610450578063b88d4fde14610479578063c87b56dd146104a2578063e3835ed3146104df578063e985e9c51461051c578063f2fde38b146105595761014b565b8063600338651461032c5780636352211e1461036957806370a08231146103a6578063715018a6146103e35780638da5cb5b146103fa57806395d89b41146104255761014b565b8063269471b311610108578063269471b3146102515780633710a34c1461027c578063385fab00146102a55780633f32983f146102d057806342842e0e146102f95780635d628b73146103225761014b565b806301ffc9a71461015057806306fdde031461018d578063081812fc146101b8578063095ea7b3146101f55780631998aeef1461021e57806323b872dd14610228575b600080fd5b34801561015c57600080fd5b50610177600480360381019061017291906124e7565b610582565b604051610184919061252f565b60405180910390f35b34801561019957600080fd5b506101a2610664565b6040516101af91906125da565b60405180910390f35b3480156101c457600080fd5b506101df60048036038101906101da9190612632565b6106f6565b6040516101ec91906126a0565b60405180910390f35b34801561020157600080fd5b5061021c600480360381019061021791906126e7565b61073c565b005b610226610853565b005b34801561023457600080fd5b5061024f600480360381019061024a9190612727565b610931565b005b34801561025d57600080fd5b50610266610991565b6040516102739190612789565b60405180910390f35b34801561028857600080fd5b506102a3600480360381019061029e9190612632565b610997565b005b3480156102b157600080fd5b506102ba6109cc565b6040516102c79190612789565b60405180910390f35b3480156102dc57600080fd5b506102f760048036038101906102f29190612917565b6109d6565b005b34801561030557600080fd5b50610320600480360381019061031b9190612727565b6109ee565b005b61032a610a0e565b005b34801561033857600080fd5b50610353600480360381019061034e9190612632565b610d57565b60405161036091906126a0565b60405180910390f35b34801561037557600080fd5b50610390600480360381019061038b9190612632565b610d94565b60405161039d91906126a0565b60405180910390f35b3480156103b257600080fd5b506103cd60048036038101906103c89190612973565b610e1a565b6040516103da9190612789565b60405180910390f35b3480156103ef57600080fd5b506103f8610ed1565b005b34801561040657600080fd5b5061040f610ee5565b60405161041c91906126a0565b60405180910390f35b34801561043157600080fd5b5061043a610f0f565b60405161044791906125da565b60405180910390f35b34801561045c57600080fd5b50610477600480360381019061047291906129cc565b610fa1565b005b34801561048557600080fd5b506104a0600480360381019061049b9190612aad565b610fb7565b005b3480156104ae57600080fd5b506104c960048036038101906104c49190612632565b611019565b6040516104d691906125da565b60405180910390f35b3480156104eb57600080fd5b5061050660048036038101906105019190612632565b611081565b6040516105139190612bfb565b60405180910390f35b34801561052857600080fd5b50610543600480360381019061053e9190612c1d565b611207565b604051610550919061252f565b60405180910390f35b34801561056557600080fd5b50610580600480360381019061057b9190612973565b61129b565b005b60007f80ac58cd000000000000000000000000000000000000000000000000000000007bffffffffffffffffffffffffffffffffffffffffffffffffffffffff1916827bffffffffffffffffffffffffffffffffffffffffffffffffffffffff1916148061064d57507f5b5e139f000000000000000000000000000000000000000000000000000000007bffffffffffffffffffffffffffffffffffffffffffffffffffffffff1916827bffffffffffffffffffffffffffffffffffffffffffffffffffffffff1916145b8061065d575061065c8261131e565b5b9050919050565b60606000805461067390612c8c565b80601f016020809104026020016040519081016040528092919081815260200182805461069f90612c8c565b80156106ec5780601f106106c1576101008083540402835291602001916106ec565b820191906000526020600020905b8154815290600101906020018083116106cf57829003601f168201915b5050505050905090565b600061070182611388565b6004600083815260200190815260200160002060009054906101000a900473ffffffffffffffffffffffffffffffffffffffff169050919050565b600061074782610d94565b90508073ffffffffffffffffffffffffffffffffffffffff168373ffffffffffffffffffffffffffffffffffffffff16036107b7576040517f08c379a00000000000000000000000000000000000000000000000000000000081526004016107ae90612d2f565b60405180910390fd5b8073ffffffffffffffffffffffffffffffffffffffff166107d66113d3565b73ffffffffffffffffffffffffffffffffffffffff1614806108055750610804816107ff6113d3565b611207565b5b610844576040517f08c379a000000000000000000000000000000000000000000000000000000000815260040161083b90612dc1565b60405180910390fd5b61084e83836113db565b505050565b600c60009054906101000a900460ff1661086c57600080fd5b600b6000600e54815260200190815260200160002060020160009054906101000a900473ffffffffffffffffffffffffffffffffffffffff1673ffffffffffffffffffffffffffffffffffffffff163373ffffffffffffffffffffffffffffffffffffffff16036108dc57600080fd5b600f5434111561092f5734600f8190555033601060006101000a81548173ffffffffffffffffffffffffffffffffffffffff021916908373ffffffffffffffffffffffffffffffffffffffff1602179055505b565b61094261093c6113d3565b82611494565b610981576040517f08c379a000000000000000000000000000000000000000000000000000000000815260040161097890612e53565b60405180910390fd5b61098c838383611529565b505050565b600f5481565b61099f611822565b6000600f819055506001600c60006101000a81548160ff02191690831515021790555080600e8190555050565b6000600f54905090565b6109de611822565b6109ea828260016118a0565b5050565b610a0983838360405180602001604052806000815250610fb7565b505050565b610a16611822565b6000600c60006101000a81548160ff0219169083151502179055506000600b6000600e54815260200190815260200160002060010160019054906101000a900473ffffffffffffffffffffffffffffffffffffffff169050601060009054906101000a900473ffffffffffffffffffffffffffffffffffffffff16600a6000600e54815260200190815260200160002060006101000a81548173ffffffffffffffffffffffffffffffffffffffff021916908373ffffffffffffffffffffffffffffffffffffffff1602179055506040518060800160405280600b6000600e5481526020019081526020016000206000018054610b1290612c8c565b80601f0160208091040260200160405190810160405280929190818152602001828054610b3e90612c8c565b8015610b8b5780601f10610b6057610100808354040283529160200191610b8b565b820191906000526020600020905b815481529060010190602001808311610b6e57829003601f168201915b505050505081526020016001151581526020018273ffffffffffffffffffffffffffffffffffffffff168152602001601060009054906101000a900473ffffffffffffffffffffffffffffffffffffffff1673ffffffffffffffffffffffffffffffffffffffff16815250600b6000600e5481526020019081526020016000206000820151816000019081610c20919061301f565b5060208201518160010160006101000a81548160ff02191690831515021790555060408201518160010160016101000a81548173ffffffffffffffffffffffffffffffffffffffff021916908373ffffffffffffffffffffffffffffffffffffffff16021790555060608201518160020160006101000a81548173ffffffffffffffffffffffffffffffffffffffff021916908373ffffffffffffffffffffffffffffffffffffffff1602179055509050508073ffffffffffffffffffffffffffffffffffffffff166108fc600f549081150290604051600060405180830381858888f19350505050158015610d1a573d6000803e3d6000fd5b50610d54610d29600e54610d94565b601060009054906101000a900473ffffffffffffffffffffffffffffffffffffffff16600e54611529565b50565b6000600a600083815260200190815260200160002060009054906101000a900473ffffffffffffffffffffffffffffffffffffffff169050919050565b600080610da083611a4b565b9050600073ffffffffffffffffffffffffffffffffffffffff168173ffffffffffffffffffffffffffffffffffffffff1603610e11576040517f08c379a0000000000000000000000000000000000000000000000000000000008152600401610e089061313d565b60405180910390fd5b80915050919050565b60008073ffffffffffffffffffffffffffffffffffffffff168273ffffffffffffffffffffffffffffffffffffffff1603610e8a576040517f08c379a0000000000000000000000000000000000000000000000000000000008152600401610e81906131cf565b60405180910390fd5b600360008373ffffffffffffffffffffffffffffffffffffffff1673ffffffffffffffffffffffffffffffffffffffff168152602001908152602001600020549050919050565b610ed9611822565b610ee36000611a88565b565b6000600660009054906101000a900473ffffffffffffffffffffffffffffffffffffffff16905090565b606060018054610f1e90612c8c565b80601f0160208091040260200160405190810160405280929190818152602001828054610f4a90612c8c565b8015610f975780601f10610f6c57610100808354040283529160200191610f97565b820191906000526020600020905b815481529060010190602001808311610f7a57829003601f168201915b5050505050905090565b610fb3610fac6113d3565b8383611b4e565b5050565b610fc8610fc26113d3565b83611494565b611007576040517f08c379a0000000000000000000000000000000000000000000000000000000008152600401610ffe90612e53565b60405180910390fd5b61101384848484611cba565b50505050565b606061102482611388565b600061102e611d16565b9050600081511161104e5760405180602001604052806000815250611079565b8061105884611d53565b60405160200161106992919061322b565b6040516020818303038152906040525b915050919050565b611089612425565b600b60008381526020019081526020016000206040518060800160405290816000820180546110b790612c8c565b80601f01602080910402602001604051908101604052809291908181526020018280546110e390612c8c565b80156111305780601f1061110557610100808354040283529160200191611130565b820191906000526020600020905b81548152906001019060200180831161111357829003601f168201915b505050505081526020016001820160009054906101000a900460ff161515151581526020016001820160019054906101000a900473ffffffffffffffffffffffffffffffffffffffff1673ffffffffffffffffffffffffffffffffffffffff1673ffffffffffffffffffffffffffffffffffffffff1681526020016002820160009054906101000a900473ffffffffffffffffffffffffffffffffffffffff1673ffffffffffffffffffffffffffffffffffffffff1673ffffffffffffffffffffffffffffffffffffffff16815250509050919050565b6000600560008473ffffffffffffffffffffffffffffffffffffffff1673ffffffffffffffffffffffffffffffffffffffff16815260200190815260200160002060008373ffffffffffffffffffffffffffffffffffffffff1673ffffffffffffffffffffffffffffffffffffffff16815260200190815260200160002060009054906101000a900460ff16905092915050565b6112a3611822565b600073ffffffffffffffffffffffffffffffffffffffff168173ffffffffffffffffffffffffffffffffffffffff1603611312576040517f08c379a0000000000000000000000000000000000000000000000000000000008152600401611309906132c1565b60405180910390fd5b61131b81611a88565b50565b60007f01ffc9a7000000000000000000000000000000000000000000000000000000007bffffffffffffffffffffffffffffffffffffffffffffffffffffffff1916827bffffffffffffffffffffffffffffffffffffffffffffffffffffffff1916149050919050565b61139181611e21565b6113d0576040517f08c379a00000000000000000000000000000000000000000000000000000000081526004016113c79061313d565b60405180910390fd5b50565b600033905090565b816004600083815260200190815260200160002060006101000a81548173ffffffffffffffffffffffffffffffffffffffff021916908373ffffffffffffffffffffffffffffffffffffffff160217905550808273ffffffffffffffffffffffffffffffffffffffff1661144e83610d94565b73ffffffffffffffffffffffffffffffffffffffff167f8c5be1e5ebec7d5bd14f71427d1e84f3dd0314c0f7b2291e5b200ac8c7c3b92560405160405180910390a45050565b6000806114a083610d94565b90508073ffffffffffffffffffffffffffffffffffffffff168473ffffffffffffffffffffffffffffffffffffffff1614806114e257506114e18185611207565b5b8061152057508373ffffffffffffffffffffffffffffffffffffffff16611508846106f6565b73ffffffffffffffffffffffffffffffffffffffff16145b91505092915050565b8273ffffffffffffffffffffffffffffffffffffffff1661154982610d94565b73ffffffffffffffffffffffffffffffffffffffff161461159f576040517f08c379a000000000000000000000000000000000000000000000000000000000815260040161159690613353565b60405180910390fd5b600073ffffffffffffffffffffffffffffffffffffffff168273ffffffffffffffffffffffffffffffffffffffff160361160e576040517f08c379a0000000000000000000000000000000000000000000000000000000008152600401611605906133e5565b60405180910390fd5b61161b8383836001611e62565b8273ffffffffffffffffffffffffffffffffffffffff1661163b82610d94565b73ffffffffffffffffffffffffffffffffffffffff1614611691576040517f08c379a000000000000000000000000000000000000000000000000000000000815260040161168890613353565b60405180910390fd5b6004600082815260200190815260200160002060006101000a81549073ffffffffffffffffffffffffffffffffffffffff02191690556001600360008573ffffffffffffffffffffffffffffffffffffffff1673ffffffffffffffffffffffffffffffffffffffff168152602001908152602001600020600082825403925050819055506001600360008473ffffffffffffffffffffffffffffffffffffffff1673ffffffffffffffffffffffffffffffffffffffff16815260200190815260200160002060008282540192505081905550816002600083815260200190815260200160002060006101000a81548173ffffffffffffffffffffffffffffffffffffffff021916908373ffffffffffffffffffffffffffffffffffffffff160217905550808273ffffffffffffffffffffffffffffffffffffffff168473ffffffffffffffffffffffffffffffffffffffff167fddf252ad1be2c89b69c2b068fc378daa952ba7f163c4a11628f55a4df523b3ef60405160405180910390a461181d8383836001611e68565b505050565b61182a6113d3565b73ffffffffffffffffffffffffffffffffffffffff16611848610ee5565b73ffffffffffffffffffffffffffffffffffffffff161461189e576040517f08c379a000000000000000000000000000000000000000000000000000000000815260040161189590613451565b60405180910390fd5b565b6118a8611822565b60006118b4600d611e6e565b90506118c0600d611e7c565b6118ca8482611e92565b83600a600083815260200190815260200160002060006101000a81548173ffffffffffffffffffffffffffffffffffffffff021916908373ffffffffffffffffffffffffffffffffffffffff160217905550604051806080016040528084815260200183151581526020018573ffffffffffffffffffffffffffffffffffffffff1681526020018573ffffffffffffffffffffffffffffffffffffffff16815250600b60008381526020019081526020016000206000820151816000019081611993919061301f565b5060208201518160010160006101000a81548160ff02191690831515021790555060408201518160010160016101000a81548173ffffffffffffffffffffffffffffffffffffffff021916908373ffffffffffffffffffffffffffffffffffffffff16021790555060608201518160020160006101000a81548173ffffffffffffffffffffffffffffffffffffffff021916908373ffffffffffffffffffffffffffffffffffffffff16021790555090505050505050565b60006002600083815260200190815260200160002060009054906101000a900473ffffffffffffffffffffffffffffffffffffffff169050919050565b6000600660009054906101000a900473ffffffffffffffffffffffffffffffffffffffff16905081600660006101000a81548173ffffffffffffffffffffffffffffffffffffffff021916908373ffffffffffffffffffffffffffffffffffffffff1602179055508173ffffffffffffffffffffffffffffffffffffffff168173ffffffffffffffffffffffffffffffffffffffff167f8be0079c531659141344cd1fd0a4f28419497f9722a3daafe3b4186f6b6457e060405160405180910390a35050565b8173ffffffffffffffffffffffffffffffffffffffff168373ffffffffffffffffffffffffffffffffffffffff1603611bbc576040517f08c379a0000000000000000000000000000000000000000000000000000000008152600401611bb3906134bd565b60405180910390fd5b80600560008573ffffffffffffffffffffffffffffffffffffffff1673ffffffffffffffffffffffffffffffffffffffff16815260200190815260200160002060008473ffffffffffffffffffffffffffffffffffffffff1673ffffffffffffffffffffffffffffffffffffffff16815260200190815260200160002060006101000a81548160ff0219169083151502179055508173ffffffffffffffffffffffffffffffffffffffff168373ffffffffffffffffffffffffffffffffffffffff167f17307eab39ab6107e8899845ad3d59bd9653f200f220920489ca2b5937696c3183604051611cad919061252f565b60405180910390a3505050565b611cc5848484611529565b611cd184848484611eb0565b611d10576040517f08c379a0000000000000000000000000000000000000000000000000000000008152600401611d079061354f565b60405180910390fd5b50505050565b60606040518060400160405280601a81526020017f697066733a2f2f68617070794d6f6e6b6579426173655552492f000000000000815250905090565b606060006001611d6284612037565b01905060008167ffffffffffffffff811115611d8157611d806127ec565b5b6040519080825280601f01601f191660200182016040528015611db35781602001600182028036833780820191505090505b509050600082602001820190505b600115611e16578080600190039150507f3031323334353637383961626364656600000000000000000000000000000000600a86061a8153600a8581611e0a57611e0961356f565b5b04945060008503611dc1575b819350505050919050565b60008073ffffffffffffffffffffffffffffffffffffffff16611e4383611a4b565b73ffffffffffffffffffffffffffffffffffffffff1614159050919050565b50505050565b50505050565b600081600001549050919050565b6001816000016000828254019250508190555050565b611eac82826040518060200160405280600081525061218a565b5050565b6000611ed18473ffffffffffffffffffffffffffffffffffffffff166121e5565b1561202a578373ffffffffffffffffffffffffffffffffffffffff1663150b7a02611efa6113d3565b8786866040518563ffffffff1660e01b8152600401611f1c94939291906135f3565b6020604051808303816000875af1925050508015611f5857506040513d601f19601f82011682018060405250810190611f559190613654565b60015b611fda573d8060008114611f88576040519150601f19603f3d011682016040523d82523d6000602084013e611f8d565b606091505b506000815103611fd2576040517f08c379a0000000000000000000000000000000000000000000000000000000008152600401611fc99061354f565b60405180910390fd5b805181602001fd5b63150b7a0260e01b7bffffffffffffffffffffffffffffffffffffffffffffffffffffffff1916817bffffffffffffffffffffffffffffffffffffffffffffffffffffffff19161491505061202f565b600190505b949350505050565b600080600090507a184f03e93ff9f4daa797ed6e38ed64bf6a1f0100000000000000008310612095577a184f03e93ff9f4daa797ed6e38ed64bf6a1f010000000000000000838161208b5761208a61356f565b5b0492506040810190505b6d04ee2d6d415b85acef810000000083106120d2576d04ee2d6d415b85acef810000000083816120c8576120c761356f565b5b0492506020810190505b662386f26fc10000831061210157662386f26fc1000083816120f7576120f661356f565b5b0492506010810190505b6305f5e100831061212a576305f5e10083816121205761211f61356f565b5b0492506008810190505b612710831061214f5761271083816121455761214461356f565b5b0492506004810190505b6064831061217257606483816121685761216761356f565b5b0492506002810190505b600a8310612181576001810190505b80915050919050565b6121948383612208565b6121a16000848484611eb0565b6121e0576040517f08c379a00000000000000000000000000000000000000000000000000000000081526004016121d79061354f565b60405180910390fd5b505050565b6000808273ffffffffffffffffffffffffffffffffffffffff163b119050919050565b600073ffffffffffffffffffffffffffffffffffffffff168273ffffffffffffffffffffffffffffffffffffffff1603612277576040517f08c379a000000000000000000000000000000000000000000000000000000000815260040161226e906136cd565b60405180910390fd5b61228081611e21565b156122c0576040517f08c379a00000000000000000000000000000000000000000000000000000000081526004016122b790613739565b60405180910390fd5b6122ce600083836001611e62565b6122d781611e21565b15612317576040517f08c379a000000000000000000000000000000000000000000000000000000000815260040161230e90613739565b60405180910390fd5b6001600360008473ffffffffffffffffffffffffffffffffffffffff1673ffffffffffffffffffffffffffffffffffffffff16815260200190815260200160002060008282540192505081905550816002600083815260200190815260200160002060006101000a81548173ffffffffffffffffffffffffffffffffffffffff021916908373ffffffffffffffffffffffffffffffffffffffff160217905550808273ffffffffffffffffffffffffffffffffffffffff16600073ffffffffffffffffffffffffffffffffffffffff167fddf252ad1be2c89b69c2b068fc378daa952ba7f163c4a11628f55a4df523b3ef60405160405180910390a4612421600083836001611e68565b5050565b604051806080016040528060608152602001600015158152602001600073ffffffffffffffffffffffffffffffffffffffff168152602001600073ffffffffffffffffffffffffffffffffffffffff1681525090565b6000604051905090565b600080fd5b600080fd5b60007fffffffff0000000000000000000000000000000000000000000000000000000082169050919050565b6124c48161248f565b81146124cf57600080fd5b50565b6000813590506124e1816124bb565b92915050565b6000602082840312156124fd576124fc612485565b5b600061250b848285016124d2565b91505092915050565b60008115159050919050565b61252981612514565b82525050565b60006020820190506125446000830184612520565b92915050565b600081519050919050565b600082825260208201905092915050565b60005b83811015612584578082015181840152602081019050612569565b60008484015250505050565b6000601f19601f8301169050919050565b60006125ac8261254a565b6125b68185612555565b93506125c6818560208601612566565b6125cf81612590565b840191505092915050565b600060208201905081810360008301526125f481846125a1565b905092915050565b6000819050919050565b61260f816125fc565b811461261a57600080fd5b50565b60008135905061262c81612606565b92915050565b60006020828403121561264857612647612485565b5b60006126568482850161261d565b91505092915050565b600073ffffffffffffffffffffffffffffffffffffffff82169050919050565b600061268a8261265f565b9050919050565b61269a8161267f565b82525050565b60006020820190506126b56000830184612691565b92915050565b6126c48161267f565b81146126cf57600080fd5b50565b6000813590506126e1816126bb565b92915050565b600080604083850312156126fe576126fd612485565b5b600061270c858286016126d2565b925050602061271d8582860161261d565b9150509250929050565b6000806000606084860312156127405761273f612485565b5b600061274e868287016126d2565b935050602061275f868287016126d2565b92505060406127708682870161261d565b9150509250925092565b612783816125fc565b82525050565b600060208201905061279e600083018461277a565b92915050565b60006127af8261265f565b9050919050565b6127bf816127a4565b81146127ca57600080fd5b50565b6000813590506127dc816127b6565b92915050565b600080fd5b600080fd5b7f4e487b7100000000000000000000000000000000000000000000000000000000600052604160045260246000fd5b61282482612590565b810181811067ffffffffffffffff82111715612843576128426127ec565b5b80604052505050565b600061285661247b565b9050612862828261281b565b919050565b600067ffffffffffffffff821115612882576128816127ec565b5b61288b82612590565b9050602081019050919050565b82818337600083830152505050565b60006128ba6128b584612867565b61284c565b9050828152602081018484840111156128d6576128d56127e7565b5b6128e1848285612898565b509392505050565b600082601f8301126128fe576128fd6127e2565b5b813561290e8482602086016128a7565b91505092915050565b6000806040838503121561292e5761292d612485565b5b600061293c858286016127cd565b925050602083013567ffffffffffffffff81111561295d5761295c61248a565b5b612969858286016128e9565b9150509250929050565b60006020828403121561298957612988612485565b5b6000612997848285016126d2565b91505092915050565b6129a981612514565b81146129b457600080fd5b50565b6000813590506129c6816129a0565b92915050565b600080604083850312156129e3576129e2612485565b5b60006129f1858286016126d2565b9250506020612a02858286016129b7565b9150509250929050565b600067ffffffffffffffff821115612a2757612a266127ec565b5b612a3082612590565b9050602081019050919050565b6000612a50612a4b84612a0c565b61284c565b905082815260208101848484011115612a6c57612a6b6127e7565b5b612a77848285612898565b509392505050565b600082601f830112612a9457612a936127e2565b5b8135612aa4848260208601612a3d565b91505092915050565b60008060008060808587031215612ac757612ac6612485565b5b6000612ad5878288016126d2565b9450506020612ae6878288016126d2565b9350506040612af78782880161261d565b925050606085013567ffffffffffffffff811115612b1857612b1761248a565b5b612b2487828801612a7f565b91505092959194509250565b600082825260208201905092915050565b6000612b4c8261254a565b612b568185612b30565b9350612b66818560208601612566565b612b6f81612590565b840191505092915050565b612b8381612514565b82525050565b612b92816127a4565b82525050565b60006080830160008301518482036000860152612bb58282612b41565b9150506020830151612bca6020860182612b7a565b506040830151612bdd6040860182612b89565b506060830151612bf06060860182612b89565b508091505092915050565b60006020820190508181036000830152612c158184612b98565b905092915050565b60008060408385031215612c3457612c33612485565b5b6000612c42858286016126d2565b9250506020612c53858286016126d2565b9150509250929050565b7f4e487b7100000000000000000000000000000000000000000000000000000000600052602260045260246000fd5b60006002820490506001821680612ca457607f821691505b602082108103612cb757612cb6612c5d565b5b50919050565b7f4552433732313a20617070726f76616c20746f2063757272656e74206f776e6560008201527f7200000000000000000000000000000000000000000000000000000000000000602082015250565b6000612d19602183612555565b9150612d2482612cbd565b604082019050919050565b60006020820190508181036000830152612d4881612d0c565b9050919050565b7f4552433732313a20617070726f76652063616c6c6572206973206e6f7420746f60008201527f6b656e206f776e6572206f7220617070726f76656420666f7220616c6c000000602082015250565b6000612dab603d83612555565b9150612db682612d4f565b604082019050919050565b60006020820190508181036000830152612dda81612d9e565b9050919050565b7f4552433732313a2063616c6c6572206973206e6f7420746f6b656e206f776e6560008201527f72206f7220617070726f76656400000000000000000000000000000000000000602082015250565b6000612e3d602d83612555565b9150612e4882612de1565b604082019050919050565b60006020820190508181036000830152612e6c81612e30565b9050919050565b60008190508160005260206000209050919050565b60006020601f8301049050919050565b600082821b905092915050565b600060088302612ed57fffffffffffffffffffffffffffffffffffffffffffffffffffffffffffffffff82612e98565b612edf8683612e98565b95508019841693508086168417925050509392505050565b6000819050919050565b6000612f1c612f17612f12846125fc565b612ef7565b6125fc565b9050919050565b6000819050919050565b612f3683612f01565b612f4a612f4282612f23565b848454612ea5565b825550505050565b600090565b612f5f612f52565b612f6a818484612f2d565b505050565b5b81811015612f8e57612f83600082612f57565b600181019050612f70565b5050565b601f821115612fd357612fa481612e73565b612fad84612e88565b81016020851015612fbc578190505b612fd0612fc885612e88565b830182612f6f565b50505b505050565b600082821c905092915050565b6000612ff660001984600802612fd8565b1980831691505092915050565b600061300f8383612fe5565b9150826002028217905092915050565b6130288261254a565b67ffffffffffffffff811115613041576130406127ec565b5b61304b8254612c8c565b613056828285612f92565b600060209050601f8311600181146130895760008415613077578287015190505b6130818582613003565b8655506130e9565b601f19841661309786612e73565b60005b828110156130bf5784890151825560018201915060208501945060208101905061309a565b868310156130dc57848901516130d8601f891682612fe5565b8355505b6001600288020188555050505b505050505050565b7f4552433732313a20696e76616c696420746f6b656e2049440000000000000000600082015250565b6000613127601883612555565b9150613132826130f1565b602082019050919050565b600060208201905081810360008301526131568161311a565b9050919050565b7f4552433732313a2061646472657373207a65726f206973206e6f74206120766160008201527f6c6964206f776e65720000000000000000000000000000000000000000000000602082015250565b60006131b9602983612555565b91506131c48261315d565b604082019050919050565b600060208201905081810360008301526131e8816131ac565b9050919050565b600081905092915050565b60006132058261254a565b61320f81856131ef565b935061321f818560208601612566565b80840191505092915050565b600061323782856131fa565b915061324382846131fa565b91508190509392505050565b7f4f776e61626c653a206e6577206f776e657220697320746865207a65726f206160008201527f6464726573730000000000000000000000000000000000000000000000000000602082015250565b60006132ab602683612555565b91506132b68261324f565b604082019050919050565b600060208201905081810360008301526132da8161329e565b9050919050565b7f4552433732313a207472616e736665722066726f6d20696e636f72726563742060008201527f6f776e6572000000000000000000000000000000000000000000000000000000602082015250565b600061333d602583612555565b9150613348826132e1565b604082019050919050565b6000602082019050818103600083015261336c81613330565b9050919050565b7f4552433732313a207472616e7366657220746f20746865207a65726f2061646460008201527f7265737300000000000000000000000000000000000000000000000000000000602082015250565b60006133cf602483612555565b91506133da82613373565b604082019050919050565b600060208201905081810360008301526133fe816133c2565b9050919050565b7f4f776e61626c653a2063616c6c6572206973206e6f7420746865206f776e6572600082015250565b600061343b602083612555565b915061344682613405565b602082019050919050565b6000602082019050818103600083015261346a8161342e565b9050919050565b7f4552433732313a20617070726f766520746f2063616c6c657200000000000000600082015250565b60006134a7601983612555565b91506134b282613471565b602082019050919050565b600060208201905081810360008301526134d68161349a565b9050919050565b7f4552433732313a207472616e7366657220746f206e6f6e20455243373231526560008201527f63656976657220696d706c656d656e7465720000000000000000000000000000602082015250565b6000613539603283612555565b9150613544826134dd565b604082019050919050565b600060208201905081810360008301526135688161352c565b9050919050565b7f4e487b7100000000000000000000000000000000000000000000000000000000600052601260045260246000fd5b600081519050919050565b600082825260208201905092915050565b60006135c58261359e565b6135cf81856135a9565b93506135df818560208601612566565b6135e881612590565b840191505092915050565b60006080820190506136086000830187612691565b6136156020830186612691565b613622604083018561277a565b818103606083015261363481846135ba565b905095945050505050565b60008151905061364e816124bb565b92915050565b60006020828403121561366a57613669612485565b5b60006136788482850161363f565b91505092915050565b7f4552433732313a206d696e7420746f20746865207a65726f2061646472657373600082015250565b60006136b7602083612555565b91506136c282613681565b602082019050919050565b600060208201905081810360008301526136e6816136aa565b9050919050565b7f4552433732313a20746f6b656e20616c7265616479206d696e74656400000000600082015250565b6000613723601c83612555565b915061372e826136ed565b602082019050919050565b6000602082019050818103600083015261375281613716565b905091905056fea2646970667358221220f7b5b05fc53e97ff8218785f66dddb5a3264336c85f5b8782eeb8bf7a80c01a964736f6c63430008130033",
  "immutableReferences": {},
  "source": "// SPDX-License-Identifier: MIT\r\npragma solidity ^0.8.9;\r\n//pragma solidity >=0.5.0 <0.9.0;\r\n\r\nimport \"@openzeppelin/contracts/token/ERC721/ERC721.sol\";\r\nimport \"@openzeppelin/contracts/access/Ownable.sol\";\r\nimport \"@openzeppelin/contracts/utils/Counters.sol\";\r\n\r\ncontract ResearchPapers is ERC721, Ownable {\r\n    using Counters for Counters.Counter;\r\n\r\n    //////////data structures INTIALIZATIONS/DECLARATIONS///////////////////\r\n    struct PaperDetails{\r\n        string name;\r\n        bool verified;\r\n        address payable previous_owner;\r\n        address payable present_owner;\r\n    }\r\n    PaperDetails[] paperDetails;\r\n    struct PersonalDetails {\r\n        string name;\r\n        //designation can be Author, Owner, Auctioneer, Bidder or Reviewer\r\n        string designation;\r\n    }\r\n    mapping (address => PersonalDetails) add_to_per;\r\n    address ownerAddress;\r\n    //mapping between token ID and owner of RP address\r\n    mapping (uint256 => address) nft_to_personlink;\r\n    mapping (uint256 => PaperDetails) nft_to_paperlink;\r\n    bool start = false;\r\n    Counters.Counter private _tokenIdCounter;\r\n\r\n    constructor() ERC721(\"ResearchPaperBidding\", \"RPB\") {\r\n        ownerAddress = msg.sender;\r\n    }\r\n\r\n    \r\n    //////////////Modifiers/////////////////\r\n    modifier onlyBidOpen(){\r\n        require(start);\r\n        _;\r\n    }\r\n\r\n    modifier notOwner(){\r\n        require(msg.sender != nft_to_paperlink[present_token_id].present_owner);\r\n        _;\r\n    }\r\n\r\n    ///////////////////OPERATIONS///////////////////////////////////////////\r\n\r\n    function _baseURI() internal pure override returns (string memory) {\r\n        return \"ipfs://happyMonkeyBaseURI/\";\r\n    }\r\n\r\n    function safeMint(address payable to, string memory name, bool verified) private onlyOwner{\r\n        uint256 tokenId = _tokenIdCounter.current();\r\n        _tokenIdCounter.increment();\r\n        _safeMint(to, tokenId);\r\n        //link NFT token to owner and NFT token to paper\r\n        nft_to_personlink[tokenId] = to;\r\n        nft_to_paperlink[tokenId] = PaperDetails(name, verified, to, to);\r\n    }\r\n\r\n    //upload and review the research paper\r\n    function uploadPaperAndValidate(address payable author, string memory paper_name) public onlyOwner{\r\n        //assuming the validation is done correctly, updating the verified parmeter of PaperDetails to true\r\n        safeMint(author, paper_name, true);\r\n    }\r\n\r\n    ///////////////////////////////////Bidding////////////////////////////////////////////////////\r\n\r\n    //start bidding by owner/auctioneer\r\n    uint present_token_id;\r\n    function start_bidding(uint id) public onlyOwner{\r\n         max_price = 0;\r\n        start = true;\r\n        present_token_id = id;\r\n    }\r\n\r\n    //assumption only one item can be bidded at a time\r\n    uint public max_price = 0;\r\n    address payable temp;\r\n    function bid() public onlyBidOpen notOwner payable{\r\n        if(msg.value > max_price){\r\n            max_price = msg.value;\r\n            temp = payable(msg.sender);\r\n        }\r\n    }\r\n\r\n    //close bidding\r\n    function close_bidding() public payable onlyOwner{\r\n        start = false;\r\n        address payable previous_own = nft_to_paperlink[present_token_id].previous_owner;\r\n        nft_to_personlink[present_token_id] = temp;\r\n        nft_to_paperlink[present_token_id] = PaperDetails(nft_to_paperlink[present_token_id].name, true, previous_own, temp);\r\n        previous_own.transfer(max_price);\r\n        _transfer(ownerOf(present_token_id), temp, present_token_id);\r\n    }\r\n\r\n\r\n    //these methods are only meant for testing purpose\r\n\r\n     //debug nft_to_paperlink\r\n     function display_PaperDetails(uint256 id) public view returns (PaperDetails memory){\r\n        return nft_to_paperlink[id];\r\n    }\r\n\r\n    //debug max bid price so far\r\n     function display_maxBidPrice() public view returns (uint){\r\n        return max_price;\r\n    }\r\n\r\n    //display nft_to_personlink\r\n    function display_PersonDetails(uint id) public view returns (address){\r\n        return nft_to_personlink[id];\r\n    }\r\n\r\n}",
  "sourcePath": "E:\\Career\\University at Buffalo\\Semester 2\\CSE_Blockchain\\Project\\playground\\research-papers-bid\\contracts\\Research_paper_bid.sol",
  "compiler": {
    "name": "solc",
    "version": "0.8.19+commit.7dd6d404.Emscripten.clang"
  },
  "schemaVersion": "3.4.13",
  "updatedAt": "2023-04-20T00:27:01.114Z",
  "devdoc": {
    "events": {
      "Approval(address,address,uint256)": {
        "details": "Emitted when `owner` enables `approved` to manage the `tokenId` token."
      },
      "ApprovalForAll(address,address,bool)": {
        "details": "Emitted when `owner` enables or disables (`approved`) `operator` to manage all of its assets."
      },
      "Transfer(address,address,uint256)": {
        "details": "Emitted when `tokenId` token is transferred from `from` to `to`."
      }
    },
    "kind": "dev",
    "methods": {
      "approve(address,uint256)": {
        "details": "See {IERC721-approve}."
      },
      "balanceOf(address)": {
        "details": "See {IERC721-balanceOf}."
      },
      "getApproved(uint256)": {
        "details": "See {IERC721-getApproved}."
      },
      "isApprovedForAll(address,address)": {
        "details": "See {IERC721-isApprovedForAll}."
      },
      "name()": {
        "details": "See {IERC721Metadata-name}."
      },
      "owner()": {
        "details": "Returns the address of the current owner."
      },
      "ownerOf(uint256)": {
        "details": "See {IERC721-ownerOf}."
      },
      "renounceOwnership()": {
        "details": "Leaves the contract without owner. It will not be possible to call `onlyOwner` functions anymore. Can only be called by the current owner. NOTE: Renouncing ownership will leave the contract without an owner, thereby removing any functionality that is only available to the owner."
      },
      "safeTransferFrom(address,address,uint256)": {
        "details": "See {IERC721-safeTransferFrom}."
      },
      "safeTransferFrom(address,address,uint256,bytes)": {
        "details": "See {IERC721-safeTransferFrom}."
      },
      "setApprovalForAll(address,bool)": {
        "details": "See {IERC721-setApprovalForAll}."
      },
      "supportsInterface(bytes4)": {
        "details": "See {IERC165-supportsInterface}."
      },
      "symbol()": {
        "details": "See {IERC721Metadata-symbol}."
      },
      "tokenURI(uint256)": {
        "details": "See {IERC721Metadata-tokenURI}."
      },
      "transferFrom(address,address,uint256)": {
        "details": "See {IERC721-transferFrom}."
      },
      "transferOwnership(address)": {
        "details": "Transfers ownership of the contract to a new account (`newOwner`). Can only be called by the current owner."
      }
    },
    "version": 1
  },
  "userdoc": {
    "kind": "user",
    "methods": {},
    "version": 1
  }
}